S01900006D746B33627370325F72613870315F656B2E73726563DB
S3150200000060040022F5350002ED33000205360002D7
S3150200001005360002053600020536000205360002E4
S31502000020000000000000000000000000053600028B
S315020000300536000200000000053600020536000201
S31502000040F924000291250002CD25000209260002AC
S3150200005095260002C1220002DD23000221270002AA
S315020000605D270002BD270002ED2700021D280002BF
S315020000704D2800027D2800020F13000243130002DE
S30D0200008077130002AB13000224
S315020000880000000008000000000000000000000058
S315020000980800000000000000000000000103000044
S315020000A8998F00020A000000000400000000000008
S315020000B80000000001030000D58F00020A000000BC
S315020000C80004000000000000000000000103000018
S315020000D8119000020A00000000040000000000005F
S315020000E80348044B834202D0034B03B118477047B7
S315020000F8600000226000002200000000064B07494B
S31502000108C91A891048BF0131491003D0044B0BB1F3
S3150200011801481847704700BF6000002260000022AD
S315020001280000000010B5064C237843B9FFF7D8FF44
S31502000138044B13B10448AFF300800123237010BDAA
S31502000148682800220000000028F1C90208B5054BFC
S315020001581BB105490548AFF30080BDE80840FFF723
S31502000168CDBF00BF000000006C28002228F1C9029A
S3150200017880B500AF04F09AFD00BF80BD80B582B09D
S3150200018800AF0346FB71FB79022B03D103490448EE
S3150200019800F074F800BF0837BD4680BD60980002BB
S315020001A88428002280B500AFFFF7E2FF0023184635
S315020001B880BD000080B485B000AF0023FB60EFF37A
S315020001C810837B607B68FB600123BB60BB6883F39B
S315020001D8108800BF0D4B1B68002B05D10C4B002263
S315020001E81A750B4B40221A75084B1B680133074ACE
S315020001F81360FB683B603B6883F3108800BF00BF4F
S315020002081437BD465DF8047B704700BF48290022B3
S31502000218000D404080B485B000AF0023FB60EFF3C9
S3150200022810837B607B68FB600123BB60BB6883F33A
S31502000238108800BF0F4B1B68002B04D00D4B1B68A0
S31502000248013B0C4A13600B4B1B68002B05D10A4B6A
S3150200025800221A75084B80221A75FB683B603B68B8
S3150200026883F3108800BF00BF1437BD465DF8047BD0
S31502000278704700BF48290022000D404080B584B06F
S3150200028800AF786039607B68FB60FB68044A1A60D5
S31502000298386800F007F8002318461037BD4680BDB7
S315020002A854524F5080B584B000AF7860786800F039
S315020002B861F87B68BB60FFF77DFF0023FB8111E0D5
S315020002C8BB685A68FB89DB0013449888BB685A687E
S315020002D8FB89DB0013441B68194600F00FF8FB89FB
S315020002E80133FB81BB681B88FA899A42E8D3FFF778
S315020002F891FF00BF1037BD4680BD000080B483B0B1
S3150200030800AF03463960FB803B6803F48033002B59
S315020003181CD01749FB881B0A9BB21A46FB88DBB21C
S3150200032812011A4451F8223023F4803341F822305C
S315020003380F48FB881B0A9BB21946FB88DBB23A6850
S3150200034822F4803209010B4440F823200849FB882D
S315020003581B0A9BB21A46FB88DBB2120113443A689F
S3150200036841F8232000BF0C37BD465DF8047B704771
S315020003780008404080B588B000AF7860594B7B6171
S31502000388594B3B610023FB619FE00023BB6195E06B
S315020003987B685A68FB69DB0013449A885349BB6930
S315020003A831F813309A4240F086807B685A68FB69B6
S315020003B8DB0013441B6803F0F853FB60FB68B3F1D8
S315020003C8807F03D0FB68B3F1106F39D17B6993F84C
S315020003D84C3CDAB20121BB6901FA03F3DBB21340E2
S315020003E8DBB2002B13D1012003F0B8F87B6993F82E
S315020003F84C3CDAB20121BB6901FA03F3DBB21343BF
S31502000408DAB27B6983F84C2C012003F057F83B6972
S31502000418BA69203213F81230C3F3C013DBB2002BC9
S3150200042849D13A69BB6903F1200112F8113043F048
S31502000438800302F811300121C82002F0F1FE3AE0E9
S315020004487B6993F84C3CDAB20121BB6901FA03F3E2
S31502000458DBB21340DBB2002B15D0012003F07EF885
S315020004687B6993F84C3CDAB20121BB6901FA03F3C2
S31502000478DBB2DB43DBB21340DAB27B6983F84C2C7E
S31502000488012003F01BF83B69BA69203213F81230CF
S31502000498C3F3C013DBB2002B0DD03A69BB6903F173
S315020004A8200112F8113023F0800302F811300121DD
S315020004B8C82002F0B5FEBB690133BB61BB69022BDA
S315020004C87FF666AFFB690133FB617B681B881A46B8
S315020004D8FB699342FFF459AF00BF00BF2037BD4600
S315020004E880BD00BF00E00140002020409098000235
S315020004F880B483B000AF0346FB7197F90730002B2F
S315020005080BDBFB7903F01F02074997F907305B09F2
S31502000518012000FA02F241F8232000BF0C37BD463B
S315020005285DF8047B704700BF00E100E080B483B049
S3150200053800AF0346FB7197F90730002B0CDBFB79FA
S3150200054803F01F02074997F907305B09012000FAF1
S3150200055802F2603341F8232000BF0C37BD465DF82E
S31502000568047B704700E100E080B483B000AF034625
S315020005783960FB7197F90730002B0ADB3B68DAB260
S315020005880C4997F907301201D2B20B4483F80023BB
S315020005980AE03B68DAB20849FB7903F00F03043B29
S315020005A81201D2B20B441A7600BF0C37BD465DF86B
S315020005B8047B704700E100E000ED00E080B483B000
S315020005C800AFEFF303837B607B683B603B88C3F332
S315020005D808039BB2DBB2103BDBB25BB218460C37A0
S315020005E8BD465DF8047B704780B483B000AF03460E
S315020005F83960FB7197F9073004493A6841F82320B4
S3150200060800BF0C37BD465DF8047B70474C290022B3
S3150200061880B483B000AF0346FB7197F90730044AEA
S3150200062852F8233018460C37BD465DF8047B7047EE
S315020006384C29002280B483B000AF0346FB710C49F3
S3150200064897F9073003F5C65251F8223023F480335E
S3150200065841F82230064A97F9073003F5C65352F88D
S31502000668233000BF0C37BD465DF8047B704700BFD8
S315020006780060004080B584B000AF0346FB7197F96D
S3150200068807301846FFF7D6FFBFF35F8F00BF97F90B
S315020006980730FB60FB6803F01F02074997F907302A
S315020006A85B09012000FA02F2603341F8232000BFF9
S315020006B81037BD4680BD00BF00E100E080B584B0BA
S315020006C800AF0346B9607A60FB7397F90F30B968D1
S315020006D81846FFF749FF97F90F3079681846FFF76A
S315020006E883FF00BF1037BD4680BD000080B485B0C9
S315020006F800AF0346FB7197F90730FB60FB6803F00E
S315020007081F020749FB685B09012000FA02F241F859
S31502000718232000BF1437BD465DF8047B704700BF2F
S3150200072800E100E080B582B000AF0346FB7197F99D
S3150200073807301846FFF79EFF97F907301846FFF766
S31502000748D5FF00BF0837BD4680BD000080B485B01E
S3150200075800AF0346FB7197F90730FB60FB6803F0AD
S315020007681F020B4997F907305B09012000FA02F2CA
S31502000778203341F82320BFF34F8F00BFBFF36F8F9B
S3150200078800BF00BF1437BD465DF8047B704700BF43
S3150200079800E100E080B584B000AF0346B9607A6034
S315020007A8FB7397F90F307A68B9681846FFF786FF20
S315020007B897F90F301846FFF7B5FF00BF1037BD4649
S315020007C880BD000080B588B000AF786039607B686C
S315020007D8FB613B681B781A46344B13441B021A46C4
S315020007E8FB691A61FB693A681A603B689A68FB6991
S315020007F85A603B681A7BFB691A723B68DA69FB69BD
S315020008085A633B681A6AFB69DA63FB6900229A63D0
S31502000818FB6900225A61FB6900229A61FB69002280
S31502000828DA61FB6900221A62FB69002283F8292031
S31502000838FB69002283F82A20FB69002283F82B2011
S31502000848FB69002283F82C200023BB61EFF3108397
S31502000858FB60FB68BB6101233B613B6983F310883C
S3150200086800BF134B5A683B681B78C3F10903012181
S3150200087801FA03F3DB430E4913404B600C4B5B68EA
S3150200088801211E2002F0CCFCBB697B617B6983F3E4
S31502000898108800BF3968F86900F00CF9FB69054A47
S315020008A8DA60002318462037BD4680BDE0254000A1
S315020008B8003020404349495280B586B000AFF860FF
S315020008C8B9607A60FB7000237B61FB68FA7883F86B
S315020008D82A2001237A68B968F86800F04DF8786129
S315020008E87B6918461837BD4680BD80B584B000AF0F
S315020008F8F860B9607A60FB70FB68FA7883F82A2098
S3150200090800237A68B968F86800F036F8034618468C
S315020009181037BD4680BD80B487B000AFF860B960B5
S315020009281346FB71FB687B6100233B617B69BA68EE
S315020009385A607B69FA791A723B6918461C37BD46B2
S315020009485DF8047B704780B487B000AFF860B96081
S315020009587A603B60FB687B617B69BA685A637B692C
S315020009687A68DA637B693A689A63002318461C3701
S31502000978BD465DF8047B704780B586B000AFF86067
S31502000988B9607A60FB70FB687B617B69BA685A61F9
S315020009987B697A689A617B691B7A012B12D17B691A
S315020009A8002283F825207B695B68DBB25B00DAB23A
S315020009B8FB781343DAB27B6983F824207B69012228
S315020009C883F82620FB78002B14BF01230023DAB212
S315020009D87B6983F82920786900F0FEF803461846F1
S315020009E81837BD4680BD80B586B000AF78600B4625
S315020009F8FB707B689B6B7B617B69002B03D107F1DC
S31502000A080C037B6106E07A6907F10C0392E803009E
S31502000A1883E803007B68DA6B7B691A607B69FA787C
S31502000A281A717B685B6B786998477B689B6B002BAE
S31502000A3808D07B689B6B1A4607F10C0393E8030000
S31502000A4882E803007B68002283F82B2000BF183750
S31502000A58BD4680BD80B582B000AF78600B46FB709C
S31502000A68FB78002B09D07B681B690022DA717B6848
S31502000A781B681946786800F01DF87B680022DA615F
S31502000A887B6893F826207B6883F828207B689A6916
S31502000A987B681A627B68002283F82C207B68002216
S31502000AA883F82A207B681B69B322DA7100BF0837EC
S31502000AB8BD4680BD80B582B000AF786039607B687C
S31502000AC81B6900221A707B681B6940221A707B68B0
S31502000AD81B691B78C3F38013DBB2012BF7D17B6842
S31502000AE81B69C0221A707B681B685B6A1A797B6865
S31502000AF81B6962F01F02D2B21A747B681B685B6AB2
S31502000B08DA787B681B6962F01F02D2B25A747B6874
S31502000B181B685B6A9B781B01DBB203F07003DAB2CF
S31502000B287B681B6942F00802D2B29A707B681B681E
S31502000B385B6A1B78012B01D1052100E004217B6841
S31502000B481B685B6A5B785B00DAB27B681B690A43DF
S31502000B58D2B2DA707B681B685B681E4A934201D17F
S31502000B68F72200E077227B681B695A717B681B694A
S31502000B7800229A717B681B69B322DA713B6893F982
S31502000B8811003B685B7B7A681946FFF703FE3B68F0
S31502000B9893F90F003B685B7B7A681946FFF7FAFD03
S31502000BA83B6893F910003B685B7B7A681946FFF746
S31502000BB8F1FD3B6893F90E003B685B7B7A68194640
S31502000BC8FFF7E8FD7B681B699F221A7000BF08378A
S31502000BD8BD4680BD40420F0080B588B000AF786040
S31502000BE8664B1B6AFB60FB6803F00F23FB60FB681E
S31502000BF81B0A03F00F03BB61FB681B0E7B617B6854
S31502000C081B691B7CDBB21946BA697B69D31A01FADE
S31502000C1803F39B08FB617B6893F82C30DBB283F005
S31502000C280103DBB2002B17D00AE07B681B695B78ED
S31502000C38C3F3C013DBB2002B05D0FB69013BFB6192
S31502000C48FB69002BF1D1FB69002B01D1082390E047
S31502000C587B681B690022DA717B68002283F82820E8
S31502000C687B6800221A627B689A697B68DA617B680C
S31502000C7893F826207B6883F827207B68002283F86E
S31502000C882B207B68002283F82D207B68002283F8BC
S31502000C982E207B68002283F82F207B68002283F8A7
S31502000CA830207B681B685B6A3B613B691B78012BBA
S31502000CB801D1052200E004223B695B785B00DBB2C6
S31502000CC81343DAB23B695B791B01DBB21343D9B230
S31502000CD83B699B79DB01DAB27B681B690A43D2B2AC
S31502000CE8DA707B681A69137943F0100313717B680B
S31502000CF81A69137923F0080313717B681A69137941
S31502000D0823F0100313717B681A693B69D979137941
S31502000D1861F3C71313717B681A69537943F00103A8
S31502000D2853717B681B695B7ADAB27B681B6922F0AE
S31502000D380C02D2B25A727B681B69BF22DA717B68CF
S31502000D481B6893F90F301846FFF7D2FB7B6893F8B6
S31502000D582C30DBB283F00103DBB2002B04D07B68B4
S31502000D681B6902225A7003E07B68002283F82C2052
S31502000D78002318462037BD4680BD00BF00E001406B
S31502000D8880B584B000AF78607B6893F82D30DBB20B
S31502000D9883F00103DBB2002B34D07B689B69022BFC
S31502000DA805D87B681A69137943F0400313717B6887
S31502000DB8DB69012B11D17B681A69137943F0100399
S31502000DC813717B681A69137943F0080313717B68F8
S31502000DD81A69137923F0100313717B681B685B6A1F
S31502000DE8DB79002B03D005217868FFF7FCFD7B68C9
S31502000DF81B69DB7CDBB2FB73FB7B7B68012283F816
S31502000E082D2010E07B68DB69002B0CD07B681B6801
S31502000E185B6ADB79002B03D005217868FFF7E3FDCF
S31502000E28786800F0ACF900BF1037BD4680BD80B5C2
S31502000E3884B000AF7860C023FB607B6893F82730E4
S31502000E48002B03D0786800F028FA63E07B6893F8F1
S31502000E582930DBB283F00103DBB2002B5AD07B6860
S31502000E681B685B6ADB79002B10D07B6893F82B3002
S31502000E78DBB283F00103DBB2002B07D07B681B6A67
S31502000E88002B03D005217868FFF7ADFD7B68DB6987
S31502000E98002B12D07B685A697B681B6A1A447B68E6
S31502000EA81B6912789A747B681B6A5A1C7B681A62D9
S31502000EB87B68DB695A1E7B68DA617B68DB69002B13
S31502000EC828D17B681A69D37923F08003D3710AE0A3
S31502000ED87B681B69DB79C3F3C013DBB2002B05D031
S31502000EE8FB68013BFB60FB68002BF1D17B681B6842
S31502000EF893F910301846FFF79DFB7B681B6893F938
S31502000F0810301846FFF712FB7B681A69D37943F04B
S31502000F184003D37100BF1037BD4680BD80B584B08B
S31502000F2800AF7860C023FB607B681B685B6ADB796D
S31502000F38002B03D005217868FFF755FD7B6893F8E7
S31502000F482930DBB2002B0DD07B6893F82730012BB2
S31502000F5808D17B6893F83030DBB283F00103DBB249
S31502000F68002B33D17B68DB69002B2FD17B6893F882
S31502000F782A30DBB2002B1BD07B681B6893F90F3033
S31502000F881846FFF7E3FB7B681A69D37943F08003B7
S31502000F98D3717B681B6904225A707B681A69537974
S31502000FA823F0010353717B68012283F82C200DE09C
S31502000FB87B681B695B7ADAB27B681B6922F00802D6
S31502000FC8D2B25A727B681B6908225A707B681A6900
S31502000FD8D37923F04003D3710AE07B681B69DB7976
S31502000FE8C3F38013DBB2002B06D0FB68013BFB6020
S31502000FF8FB68002BF1D100BF00BF1037BD4680BD8C
S3150200100880B584B000AF78607B681B695B7ADBB217
S3150200101803F01F03BB737B681B695B7ADAB27B68D2
S315020010281B6922F01F02D2B25A72BB7B03F003037A
S31502001038BA7B02F01002002A09D07A68126952783D
S31502001048C2F38012D2B2012A01D0012200E00022A4
S315020010581343002B0CD07B68012283F82B20012135
S315020010687868FFF7F7FC01217868FFF7BCFC82E095
S31502001078BB7B03F01003002B30D07B681B695B78BF
S31502001088C3F38013DBB2012B28D17B68012283F8D4
S315020010982B207B681B6908225A707B681B685B6A6F
S315020010A81A787B681B685B6A5B791B01DBB21343A0
S315020010B8DAB27B681B685B6A9B79DB01DBB2134396
S315020010C8DAB27B681B6942F00202D2B2DA707B6836
S315020010D81A69537943F0010353714CE0BB7B03F061
S315020010E80803002B0AD17B6893F82C30DBB2002B5D
S315020010F831D0BB7B03F00403002B2CD00123FB73F6
S315020011087B68DB69002B17D17B6893F82B30DBB23F
S3150200111883F00103DBB2002B0ED07B6893F82930EB
S31502001128DBB2002B01D0022300E00323FB737B68AA
S315020011381B69B322DA7108E0BB7B03F00803002BB4
S3150200114803D000217868FFF785FCFB7B194678688F
S31502001158FFF749FC0FE0BB7B03F00403002B0AD020
S315020011687B681B685B6ADB79002B04D004217868EC
S31502001178FFF739FCFFE700BF1037BD4680BD80B5D3
S3150200118882B000AF78607B68DB69032B06D17B6887
S315020011981A69137943F0400313715CE07B68DB69D3
S315020011A8022B12D17B681A69137943F01003137163
S315020011B87B681A69137943F0080313717B681A6905
S315020011C8137923F01003137145E07B68DB69012B61
S315020011D841D17B6893F82A30DBB2002B2DD07B688D
S315020011E81B6893F90F301846FFF7B0FA7B681A693D
S315020011F8D37943F08003D3717B681A69137943F074
S31502001208100313717B681A69137923F008031371A3
S315020012187B681A69137923F0100313717B681B69BB
S3150200122804225A707B681A69537923F001035371B1
S315020012387B68012283F82C200DE07B681B695B7AA8
S31502001248DAB27B681B6922F00802D2B25A727B684C
S315020012581B6908225A707B681A697B6859697B6818
S315020012681B6A0B44D27CD2B21A707B681B6A5A1C60
S315020012787B681A627B68DB695A1E7B68DA617B685F
S31502001288DB69002B05D17B681A69137923F04003C1
S31502001298137100BF0837BD4680BD80B485B000AF64
S315020012A878607B6893F82630032B0DD17B6893F818
S315020012B82830022B08D17B6893F83030DBB283F0F2
S315020012C80103DBB2002B18D17B6893F82430FB7339
S315020012D87B681B69FA7B9A747B6893F8283001331A
S315020012E8DAB27B6883F828207B6893F82730013BBB
S315020012F8DAB27B6883F8272000BF00BF1437BD46E1
S315020013085DF8047B704780B582B000AFFFF756F9E7
S3150200131803461846FFF78EF9FFF750F90346FB71A5
S3150200132897F907301846FFF773F938603868FFF7F8
S3150200133827FD00BF0837BD4680BD80B582B000AF25
S31502001348FFF73CF903461846FFF774F9FFF736F933
S315020013580346FB7197F907301846FFF759F93860C3
S315020013683868FFF764FD00BF0837BD4680BD80B503
S3150200137882B000AFFFF722F90346FB7197F90730EF
S315020013881846FFF745F938603868FFF7C7FDFFF7D3
S3150200139815F903461846FFF74DF900BF0837BD464B
S315020013A880BD80B582B000AFFFF708F90346FB712E
S315020013B897F907301846FFF72BF938603868FFF7B0
S315020013C81FFEFFF7FBF803461846FFF733F900BF7F
S315020013D80837BD4680BD000080B483B000AF03461F
S315020013E83960FB7197F90730002B0ADB3B68DAB2E2
S315020013F80C4997F907301201D2B20B4483F800233D
S315020014080AE03B68DAB20849FB7903F00F03043BAA
S315020014181201D2B20B441A7600BF0C37BD465DF8EC
S31502001428047B704700E100E000ED00E080B483B081
S3150200143800AFEFF303837B607B683B603B88C3F3B3
S3150200144808039BB2DBB2103BDBB25BB218460C3721
S31502001458BD465DF8047B704780B483B000AF03468F
S315020014683960FB7197F9073004493A6841F8232035
S3150200147800BF0C37BD465DF8047B70474C29002235
S3150200148880B483B000AF0346FB7197F90730044A6C
S3150200149852F8233018460C37BD465DF8047B704770
S315020014A84C29002280B483B000AF0346FB710C4975
S315020014B897F9073003F5C65251F8223023F48033E0
S315020014C841F82230064A97F9073003F5C65352F80F
S315020014D8233000BF0C37BD465DF8047B704700BF5A
S315020014E80060004080B584B000AF0346FB7197F9EF
S315020014F807301846FFF7D6FFBFF35F8F00BF97F98D
S315020015080730FB60FB6803F01F02074997F90730AB
S315020015185B09012000FA02F2603341F8232000BF7A
S315020015281037BD4680BD00BF00E100E080B584B03B
S3150200153800AF0346B9607A60FB7397F90F30B96852
S315020015481846FFF749FF97F90F3079681846FFF7EB
S3150200155883FF00BF1037BD4680BD000080B485B04A
S3150200156800AF0346FB7197F90730FB60FB6803F08F
S315020015781F020749FB685B09012000FA02F241F8DB
S31502001588232000BF1437BD465DF8047B704700BFB1
S3150200159800E100E080B582B000AF0346FB7197F91F
S315020015A807301846FFF79EFF97F907301846FFF7E8
S315020015B8D5FF00BF0837BD4680BD000080B485B0A0
S315020015C800AF0346FB7197F90730FB60FB6803F02F
S315020015D81F020B4997F907305B09012000FA02F24C
S315020015E8203341F82320BFF34F8F00BFBFF36F8F1D
S315020015F800BF00BF1437BD465DF8047B704700BFC5
S3150200160800E100E080B584B000AF0346B9607A60B5
S31502001618FB7397F90F307A68B9681846FFF786FFA1
S3150200162897F90F301846FFF7B5FF00BF1037BD46CA
S3150200163880BD000080B58EB000AF786039607B68E7
S31502001648FB6200237B63FB6A3A681A613B68DA68C5
S31502001658FB6A5A613B681A69FB6ADA61FB6A00220D
S315020016689A61FB6A00221A70FB6A1B695B69BB6294
S3150200167800237B62EFF310837B617B697B62012324
S31502001688BB61BB6983F3108800BFA34BDB68A24A20
S3150200169823F40013D360A04BDB6801211E2001F05E
S315020016A8BFFD7B6AFB61FB6983F3108800BFBB6AD7
S315020016B81B7F03F00303DBB2012B1ED100233B621F
S315020016C8EFF31083BB60BB683B620123FB60FB68D8
S315020016D883F3108800BF904B1B698F4A23F000439F
S315020016E813618D4B1B6901211E2001F099FD3B6A8E
S315020016F83B613B6983F3108800BF884ABB6A1B6A51
S31502001708D360864B00221A60844B5B68002BFBD1A0
S31502001718824ABB6ADB699360804B01221A607F4B5F
S315020017285B68012BFBD17D4ABB6A5B6A13640023A3
S3150200173887F833302CE097F83330BA6A134493F8B3
S315020017482430C3F38103DBB2002B1CD197F8333064
S31502001758DB00072202FA03F37A6B13437B6397F8DB
S315020017683330BA6A134493F82430C3F30103DBB265
S31502001778012B08D197F83330DB00082202FA03F36B
S315020017887A6B13437B6397F83330013387F8333028
S3150200179897F83330012BCED9604A7B6B53645F4A84
S315020017A8BB6AD3F89C30C2F86032BB6A93F89030B1
S315020017B85A4A03F00703C2F88032BB6A93F890309C
S315020017C81B11564A03F00703C2F88C32534ABB6A06
S315020017D8D3F89430C2F88832504ABB6AD3F89830A4
S315020017E8C2F894324D4ABB6A5B69C2F840334B4A27
S315020017F8BB6A9B69C2F84433484ABB6A5B6EC2F845
S315020018086432464ABB6A9B6EC2F8B032002387F836
S3150200181832302AE097F83220BB6A283253F822106F
S3150200182897F832309A003E4B13440A461A6097F8E4
S31502001838321097F832309A003A4B1344BA6A30316A
S3150200184852F821201A6097F8323097F83220910020
S31502001858354A0A44B96A38339B000B445B681360FD
S3150200186897F83230013387F8323097F83230072B3F
S31502001878D0D92A4ABB6AD3F8E030C2F8A033274B3C
S315020018880022C3F80024254B0022C3F80424234B64
S315020018980022C3F80824214B0022C3F80C24BB6A91
S315020018A81A8F1E4BC3F8C024BB6A5A8F1B4BC3F848
S315020018B8C4241A4ABB6ADB6BC2F8C834174ABB6A25
S315020018C81B6CC2F8CC34154ABB6A5B6CC2F8D034BE
S315020018D8124ABB6A9B6CC2F8D434104ABB6ADB6CE8
S315020018E8C2F8D8340D4B40F2FF12C3F8F02CF86A4E
S315020018F800F02FFC094B4FF440329A62074B032241
S315020019081A62064B03225A62FB6A084A5A62002383
S3150200191818463837BD4680BD003020400080334027
S315020019286083334080833340A48333404843444131
S3150200193880B592B000AF786039603B68BB637B685C
S315020019487B6300237B6400233B647B6B1B695B69B7
S315020019583B637B6B00221A70002387F83F300BE04B
S3150200196897F83F301A01A54B134400221A6097F8DC
S315020019783F30013387F83F3097F83F30202BEFD9B5
S315020019889F4A3B6BDB6AD3649D4A3B6B1B6B1365B1
S315020019989B4A3B6B5B6B5365994A3B6B1B6DC2F863
S315020019A8C031974A3B6B5B6DC2F8C431944A3B6BB4
S315020019B89B6DC2F8C831924A3B6BDB6DC2F8CC31DB
S315020019C88F4A3B6B1B6EC2F8D031002387F83E3034
S315020019D810E097F83E1097F83E309A00894B134468
S315020019E83A6B1C3152F821201A6097F83E300133BF
S315020019F887F83E3097F83E30072BEAD97B6B0022F0
S31502001A089A607B6B00225A60002387F83D3021E1F9
S31502001A18BB6B5A6897F83D309B0013441B68FB6200
S31502001A28FB6A1B781A46012393407B857B8D7A6C69
S31502001A3813437B64FB6A1B791A46FB6A1B7802FA14
S31502001A4803F31A463B6C13433B64FB6A5B79002B30
S31502001A5807D1FB6A9B79002B03D1FB6A9B68002B93
S31502001A6806D07B6B5A687B8D1A437B6B5A6005E0FE
S31502001A787B6B9A687B8D1A437B6B9A60FB6A5979F2
S31502001A88FB6A1B781A01604B13440A461A60FB6A02
S31502001A989979FB6A1B781A015C4B13440A461A6049
S31502001AA8FB6A1B781A015A4B1344FA6A92681A603F
S31502001AB8FB6A1B789A00574B1344FA6A12691A6032
S31502001AC8002387F83C30B9E0FB6A9A6997F83C30FC
S31502001AD89B0013441B687B627B6A1B7887F823305A
S31502001AE897F823301A01454B13447A6A52681A60EA
S31502001AF897F823301A01484B13447A6A92681A6097
S31502001B0897F823301A01454B13447A6AD2681A6049
S31502001B1897F823301A01424B13447A6A12691A60FB
S31502001B287B6A5B681B0A03F07F03FB61FB69642B14
S31502001B3803D0FB69652B5CD07BE03A4B1B78C3F379
S31502001B48C013DBB2002B73D10023BB61EFF3108302
S31502001B58FB60FB68BB6101233B613B6983F3108829
S31502001B6800BF314BDB68304A23F48003D3602E4B27
S31502001B78DB6801211E2001F053FBBB697B617B698F
S31502001B8883F3108800BF294B93F8DC3AC3F3C003EA
S31502001B98DBB2002B1ED1254B4AF22052A3F8FA23B8
S31502001BA8224A92F8E03A23F0010382F8E03A1F4A01
S31502001BB892F8DC3A43F0080382F8DC3A1B4A92F8B8
S31502001BC8E03A43F0010382F8E03A184B4FF4254213
S31502001BD8A3F8FA23134A137843F0800313700121FA
S31502001BE81E2001F01DFB0F4A137843F010031370F1
S31502001BF81EE0034B0122C3F820231AE00086334075
S31502001C080080334040823340C0803340C480334032
S31502001C18C880334000823340048633400886334006
S31502001C280C863340005023400030204000E001403B
S31502001C3800BF97F83C30013387F83C30FB6ADB7803
S31502001C4897F83C209A42FFF43FAF97F83D300133AC
S31502001C5887F83D30BB6B1B7897F83D209A42FFF414
S31502001C68D7AEB96B786B00F035F9074A7B6C93648B
S31502001C78054A3B6CD3657B6B044A1A6200231846F5
S31502001C884837BD4680BD00BF0080334048434441C3
S31502001C9880B487B000AFF860B9607A603B60FB68D1
S31502001CA87B617B69BA685A617B697A68DA617B69A2
S31502001CB83A689A61002318461C37BD465DF8047BCC
S31502001CC87047000080B485B000AF78607B68FB601F
S31502001CD8084AFB685B68C2F8083C064AFB689B68C8
S31502001CE8C2F8103C002318461437BD465DF8047B3B
S31502001CF8704700BF0080334080B584B000AF78607B
S31502001D087B68FB60F86800F0CDF9002318461037A7
S31502001D18BD4680BD80B489B000AFF8600B467A60D4
S31502001D28FB724FF00043FB61FB7A162B06D8FB7A4F
S31502001D389A00134B13441B68FB6106E0FB7A603B6F
S31502001D489A00104B13441B68FB61FB6903F00043BE
S31502001D58002B14BF01230023FB76FB699AB27B682A
S31502001D681A80FB7E002B01D0252300E000237B612D
S31502001D787B6918462437BD465DF8047B704700BF69
S31502001D8800A0334080A1334080B58CB000AF7860A4
S31502001D987B68FB62F86A00F085F9FB6A00225A62E0
S31502001DA8FB6A00221A62FB6A00225A60FB6A002258
S31502001DB89A602D4B0022C3F82023F86A00F09EF998
S31502001DC82A4B1B78C3F3C013DBB2002B28D0274A51
S31502001DD8137823F010031370244A137823F0800330
S31502001DE813700023BB62EFF31083BB61BB69BB624E
S31502001DF80123FB61FB6983F3108800BF1C4BDB6878
S31502001E081B4A43F48003D360194BDB6801211E2069
S31502001E1801F006FABB6A3B623B6A83F3108800BF8D
S31502001E2800237B62EFF31083FB60FB687B6201236E
S31502001E383B613B6983F3108800BF0D4BDB680C4A94
S31502001E4843F40013D3600A4BDB6801211E2001F01C
S31502001E58E7F97B6A7B617B6983F3108800BF0023FD
S31502001E6818463037BD4680BD0080334000502340B7
S31502001E780030204080B584B000AF786039607B6856
S31502001E88FB60FB6800221A70F86800F00BF90E4B2B
S31502001E980322C3F88C2C0C4B0322C3F8B42C0A4B2E
S31502001EA80A4AC3F8B82C084B094AC3F8C42CF8687E
S31502001EB800F082F8B860044ABB68C2F8003C002306
S31502001EC818461037BD4680BD00803340FFFF7F00AD
S31502001ED87303770080B48DB000AF786039607B6891
S31502001EE81B695B693B623B6A93F8223003F0010384
S31502001EF8DBB2002B0CBF01230023DBB23B733B6A28
S31502001F0893F8223003F00203DBB2002B0CBF012345
S31502001F180023DBB27B733B6A1B8CC3F30A039BB2B7
S31502001F28FB830023FB62002387F82B302FE03B68F4
S31502001F385A6897F82B309B0013441B68BB61BB6930
S31502001F485B7830333B4413F8243CFB7597F82B2017
S31502001F583B6A283233F812303B6100237B62FB7DF1
S31502001F68002B06D0FB8B5B001A463B6913447B6247
S31502001F7802E03B6904337B62FA6A7B6A9A4201D2BF
S31502001F887B6AFB6297F82B30013387F82B303B6864
S31502001F981B7897F82B209A4203D27B685B68002B42
S31502001FA8C5D1FB6A5A1C7B68DA6000BF3437BD4666
S31502001FB85DF8047B7047000080B584B000AF786096
S31502001FC80023FB607B681B78052B62D801A252F8B6
S31502001FD823F000BFF51F0002012000023B20000289
S31502001FE82D20000269200002692000027B68012276
S31502001FF81A700323FB604DE07B6803221A70284B94
S31502002008D3F8803203F00703002B06D00423FB60C3
S31502002018234B0722C3F880223CE07868FFF7CCFFFF
S31502002028F86037E07B6802221A704FF44073FB604F
S3150200203830E07B6804221A70194BD3F88C3203F00D
S315020020480703002B07D04FF48063FB60144B07226B
S31502002058C3F88C221EE07868FFF7AEFFF86019E035
S315020020687B681B695B69BB60BB6893F890300C4A56
S3150200207803F00703C2F88032BB6893F890301B114D
S31502002088074A03F00703C2F88C327B6805221A70E6
S3150200209800E000BFFB6818461037BD4680BD00BF8A
S315020020A80080334080B485B000AF7860124B0022BE
S315020020B8C3F8082C7B68DB68FB6005E00E4BD3F897
S315020020C8803CFB68013BFB60FB68002BF6D10A4BA0
S315020020D8D3F8803C002B09D0074B40F20112C3F813
S315020020E8602C054BD3F8803C002BFAD100BF14377D
S315020020F8BD465DF8047B70470080334080B588B0E2
S3150200210800AF78607B681B695B69BB61BB69DB6E84
S315020021187B617B691C333B617B693733FB603B69B7
S31502002128FB610DE0FB6993F90030002B05DBFB69C7
S3150200213893F900301846FFF741FAFB690133FB6150
S31502002148FA69FB689A42EDD900BF00BF2037BD463F
S3150200215880BD80B58AB000AF78607B681B695B6911
S31502002168FB61FB69DB6EBB61BB697B61BB691B33C8
S315020021783B61BB691C33FB607B697B62FB683B6224
S315020021880CE03B6A5A1C3A6293F900107B6A5A1CA5
S315020021987A621B781A46786800F009F87A6A3B6907
S315020021A89A42EED900BF00BF2837BD4680BD80B52A
S315020021B882B000AF78600B46FB701346BB7097F986
S315020021C80330002B06DBB97897F903307A6818468C
S315020021D8FFF718FA00BF0837BD4680BD80B58EB036
S315020021E800AFC7E900230346FB730B46BB81FFF723
S315020021F81DF9034687F8373097F937301846FFF73F
S315020022083FF938633B6B5B69002B16D0FB7BBB74CB
S31502002218FF233B76D7E90023C7E90823BB893B8519
S315020022283B6BDB697B6197F840309BB23B8207F1D7
S3150200223810031946386B00F006F897F93730184636
S315020022483837BD4680BDB0B58CB000AF786039600E
S315020022587B689B69FB62FB6A002B02D13B68FB62C7
S3150200226813E0FB6A07F108041D460FCD0FC495E873
S315020022780F0084E80F00FA6A3B6814461D460FCD24
S315020022880FC495E80F0084E80F007B685B69F86A5B
S3150200229898477B689B69002B0AD07B689B691D4619
S315020022A807F108040FCC0FC594E80F0085E80F0064
S315020022B800BF3037BD46B0BD2DE9B04F8EB002AF74
S315020022C8032187F82F104FF000004FF00001C7E9ED
S315020022D808013F49D1F8881CC1F30001C9B2002997
S315020022E805D097F82F1041F0060187F82F103849C4
S315020022F8D1F8A01CC1F30001C9B200292BD097F866
S315020023082F1041F0070187F82F103149D1F8A41C84
S31502002318B9612F49D1F8B01C7961796900208A46DA
S3150200232883464FF000004FF0000151460020C7E9EE
S315020023380201B96900200C460546D7E9020144EABA
S31502002348000245EA0103D7E9080140EA020841EA20
S315020023580309C7E90889FFF769F80346FB7197F984
S3150200236807301846FFF78CF838603868FFF724FEFE
S31502002378F86197F82F3003F0FC03002B04D03B6872
S3150200238806221A700023FB613B681B78042B08D9C6
S3150200239897F82F00FF230093D7E908230021FFF7B8
S315020023A81DFF0B4B0122C3F89C2C97F907301846E0
S315020023B8FFF778F8064BD3F8803C002BFAD1044A8B
S315020023C8FB69C2F8003C00BF3037BD46BDE8B08F96
S315020023D8008033402DE9B04F8EB002AF032187F853
S315020023E82F104FF000004FF00001C7E908013F49DE
S315020023F8D1F8881CC1F34001C9B2002905D097F863
S315020024082F1041F0060187F82F103849D1F8A01C81
S31502002418C1F34001C9B200292BD097F82F1041F019
S31502002428070187F82F103149D1F8A41CB9612F4941
S31502002438D1F8B01C7961796900208A4683464FF043
S3150200244800004FF0000151460020C7E90201B969B0
S3150200245800200C460546D7E9020144EA000245EA8D
S315020024680103D7E9080140EA020841EA0309C7E974
S315020024780889FEF7DBFF0346FB7197F90730184612
S31502002488FEF7FEFF38603868FFF796FDF86197F8A1
S315020024982F3003F0FC03002B04D03B6806221A7087
S315020024A80023FB613B681B78042B08D997F82F0099
S315020024B8FF230093D7E908230021FFF78FFE0B4B72
S315020024C80222C3F89C2C97F907301846FEF7EAFF52
S315020024D8064BD3F8803C002BFAD1044AFB69C2F8B2
S315020024E8003C00BF3037BD46BDE8B08F00803340A0
S315020024F82DE9B0438AB002AF224BD3F8283DFB83BD
S31502002508204BD3F82C3DBB611E4BD3F8383D002235
S31502002518984691464FF000024FF0000343460022C8
S31502002528C7E90423BB69002218461146D7E90423E2
S3150200253842EA000443EA0105C7E90245F98BFF238B
S315020025480093D7E902230820FFF748FE0346FB71EA
S315020025580C4AFB8BC2F83C3D0A4ABB69C2F8403DAD
S31502002568D7E9042352EA1F0306491346C1F84C3D2C
S3150200257897F907301846FEF795FF00BF2037BD4684
S31502002588BDE8B0830080334080B584B002AF012332
S3150200259800934FF000024FF0000300210620FFF7D8
S315020025A81DFE0346FB71064B0122C3F88C2C97F9D4
S315020025B807301846FEF776FF00BF0837BD4680BDCE
S315020025C80080334080B584B002AF022300934FF0F7
S315020025D800024FF0000300210620FFF7FFFD034625
S315020025E8FB71064B0222C3F88C2C97F90730184662
S315020025F8FEF758FF00BF0837BD4680BD008033404E
S315020026082DE9B0438AB002AF1F4BD3F8A43CFB6155
S315020026181D4BD3F8B03CBB61BB6900229846914674
S315020026284FF000024FF0000343460022C7E9042395
S31502002638FB69002218461146D7E9042342EA000438
S3150200264843EA0105C7E9024501230093D7E90223B4
S3150200265800210720FFF7C2FD0346FB710A4AFB6900
S31502002668C2F8B83C084ABB69C2F8C43C064B012208
S31502002678C3F8B42C97F907301846FEF713FF00BFC4
S315020026882037BD46BDE8B083008033402DE9B0430C
S315020026988AB002AF1F4BD3F8A43CFB611D4BD3F89B
S315020026A8B03CBB61BB690022984691464FF00002D6
S315020026B84FF0000343460022C7E90423FB690022C0
S315020026C818461146D7E9042342EA000443EA0105FB
S315020026D8C7E9024502230093D7E90223002107200E
S315020026E8FFF77CFD0346FB710A4AFB69C2F8B83C50
S315020026F8084ABB69C2F8C43C064B0222C3F8B42C8A
S3150200270897F907301846FEF7CDFE00BF2037BD46BB
S31502002718BDE8B0830080334080B584B002AFFF23A2
S3150200272800934FF000024FF0000301210020FFF74B
S3150200273855FD0346FB71064B0122C3F8542D97F942
S3150200274807301846FEF7AEFE00BF0837BD4680BD05
S315020027580080334080B584B002AF154BD3F8F43C01
S31502002768C3F308039BB2FB80F988FF2300934FF05B
S3150200277800024FF000030A20FFF730FD03467B7183
S315020027880B4AFB88C2F8F03C094AFB88C3F30803E4
S3150200279899B2D2F8F83C61F30803C2F8F83C97F903
S315020027A805301846FEF77EFE00BF0837BD4680BDD7
S315020027B80080334080B584B002AFFF2300934FF008
S315020027C800024FF0000301210920FFF707FD034627
S315020027D8FB7197F907301846FEF764FE00BF083703
S315020027E8BD4680BD80B584B002AFFF2300934FF08B
S315020027F800024FF0000302210920FFF7EFFC03460F
S31502002808FB7197F907301846FEF74CFE00BF0837EA
S31502002818BD4680BD80B584B002AFFF2300934FF05A
S3150200282800024FF0000304210920FFF7D7FC0346F4
S31502002838FB7197F907301846FEF734FE00BF0837D2
S31502002848BD4680BD80B584B002AFFF2300934FF02A
S3150200285800024FF0000308210920FFF7BFFC0346D8
S31502002868FB7197F907301846FEF71CFE00BF0837BA
S31502002878BD4680BD80B584B002AFFF2300934FF0FA
S3150200288800024FF0000310210920FFF7A7FC0346B8
S31502002898FB7197F907301846FEF704FE00BF0837A2
S315020028A8BD4680BD80B483B000AF78607B68022BDA
S315020028B804D801227B6802FA03F31DE07B68032B26
S315020028C801D1062318E07B68042B01D1082313E003
S315020028D87B68052B01D103230EE07B68062B01D109
S315020028E8052309E07B68072B01D10A2304E07B68EC
S315020028F8083B102202FA03F318460C37BD465DF868
S31502002908047B704780B483B000AF2A4B93F8263015
S31502002918DBB27B60274B9B8C9BB2DBB203F00F03C7
S31502002928FB70FB78BB70BB78082B0AD1224A7B68FE
S3150200293852F82330214AA2FB03235B08204A13607C
S3150200294832E0BB78092B0AD11B4A7B6852F823303E
S315020029581A4AA2FB03239B08194A136024E0BB7890
S315020029680A2B0AD1144A7B6852F82330134AA2FB6F
S315020029780323DB08124A136016E0BB780B2B0AD135
S315020029880D4A7B6852F823300C4AA2FB03231B0923
S315020029980B4A136008E0084A7B6852F82320BB7882
S315020029A822FA03F3064A136000BF0C37BD465DF8E8
S315020029B8047B704700E0014060040022ABAAAAAA81
S315020029C8A029002280B400AF064B00221A70054BDC
S315020029D81B78044B1B78034B1B7800BFBD465DF87A
S315020029E8047B704700C0134080B483B000AF094B24
S315020029F85B68C3F309039BB27B607B68642B02D9CD
S31502002A08044B01221A7000BF0C37BD465DF8047BE1
S31502002A18704700BF00C0134080B485B000AF78602D
S31502002A2839607B68B3F5004F02D80023FB600FE0DC
S31502002A387B6803F5742303F23F23194AA2FB032397
S31502002A489B0CFB6004E0174AFB6843F0F0535360A3
S31502002A58144B5B68FA689A42F5D13B68B3F5004FA6
S31502002A6802D80023FB600FE03B6803F5742303F2E8
S31502002A783F230B4AA2FB03239B0CFB6004E0094A93
S31502002A88FB6843F061439360064B9B68FA689A4277
S31502002A98F5D100BF00BF1437BD465DF8047B704709
S31502002AA883DE1B4300C0134080B500AFFFF78AFFE1
S31502002AB815491648FFF7B0FF154B164A1A62144B0A
S31502002AC842F220129A84124B052283F82620FFF737
S31502002AD819FF01211E2000F0A3FBFFF785FFFFF770
S31502002AE811FF0D4B4AF201521A80BFF35F8F00BFE6
S31502002AF8094B01221A72BFF35F8F00BF064B4FF4D0
S31502002B0825421A8000BF80BD4059730780B2E60E7F
S31502002B1800E00140323423320020004080B500AF85
S31502002B28134B144A1A60124B134A5A60104B4FF44D
S31502002B3800429A600E4B114ADA600D4B4FF400427E
S31502002B481A610B4B0E4A5A61094B0E4ADA61084B57
S31502002B580D4A1A62064B0D4A9A61054B0C4A5A628D
S31502002B68034B0C4A9A62FFF7CDFE00BF80BD00BF39
S31502002B7860040022006CDC0200127A0000366E0144
S31502002B8800CA9A3B5543DE130084D7170046C3236F
S31502002B980008AF2F00389C1C80B582B000AF994B55
S31502002BA84AF20352A3F8FA23FFF7B8FF954B0A2213
S31502002BB883F8502A934B092283F8A22000F0A4F93D
S31502002BC8904B002283F836208E4B002283F832205F
S31502002BD88C4B93F83C30C3F3C003DBB2012BF7D11D
S31502002BE8884B894AC3F8C820864B40F22342A3F889
S31502002BF84E20844B002283F84A20824B4FF602125B
S31502002C08C3F8AC207F4B40F25142A3F84C20BFF3E5
S31502002C184F8F00BFBFF36F8F00BF7C4B5B697B4A48
S31502002C2823F400335361794B0022C3F85022BFF3D1
S31502002C384F8F00BFBFF36F8F00BF00BF744B1B6877
S31502002C48734A23F440531360BFF34F8F00BFBFF399
S31502002C586F8F00BF6B4A137D012161F3020313755F
S31502002C68684B1B7DC3F30013DBB2002BF8D1684B0C
S31502002C781B68674A43F440531360BFF34F8F00BF84
S31502002C88BFF36F8F00BF614B5B6903F40033002B00
S31502002C981BD1BFF34F8F00BFBFF36F8F00BF5B4BD4
S31502002CA80022C3F85022BFF34F8F00BFBFF36F8FC6
S31502002CB800BF564B5B69554A43F400335361BFF371
S31502002CC84F8F00BFBFF36F8F00E000BF4D4B00224E
S31502002CD883F82A204B4B93F83C30C3F34013DBB2FC
S31502002CE8012BF7D1FFF7E0FE0923032249494A4897
S31502002CF800F0CAF8434B012283F853200023FB71E4
S31502002D08404AFB7982F83E30FB7963F07F03FB7118
S31502002D183C4AFB7982F83E303A4A92F8743043F0DC
S31502002D28400382F87430374B93F87430C3F3C013F8
S31502002D38DBB2012BF7D1334B072283F86C20314BD8
S31502002D484A2283F874202F4B0A2283F874202D4BCB
S31502002D5893F87430C3F3C013DBB2002BF7D1072301
S31502002D683B7100237B713B1D184600F003F90A23C9
S31502002D7803222A492A4800F087F80A230222294907
S31502002D88294800F081F8072300222849284800F03C
S31502002D987BF8062301222749274800F075F80923FC
S31502002DA802222649264800F06FF80A2301222549FD
S31502002DB8254800F069F80A2304222449244800F029
S31502002DC863F80A2304222349234800F05DF8052301
S31502002DD802222249224800F057F8052301222149F6
S31502002DE8214800F051F8092309222049204800F019
S31502002DF84BF8044B4FF42542A3F8FA2300BF0837D1
S31502002E08BD4680BD00E00140022B010000ED00E056
S31502002E1800E001E0D4E00140DAE001406EE0014062
S31502002E2876E0014054E0014055E0014056E0014099
S31502002E3857E001405CE001405DE0014070E001407E
S31502002E4878E001405EE001405FE001406FE001404A
S31502002E5877E001405AE001405BE00140D5E00140DD
S31502002E68DBE00140D6E00140DCE00140D8E0014069
S31502002E78DEE0014080B483B000AF786000BF0C3753
S31502002E88BD465DF8047B704780B485B000AFF86034
S31502002E98B96011461A460B46FB711346BB71FB68AD
S31502002EA81B78DBB243F04003DAB2FB681A70FB68A0
S31502002EB81B78DBB2DB09DBB203F00103DBB2012BC1
S31502002EC8F5D1BB68FA791A70BB7963F03F03DAB2B7
S31502002ED8FB681A70FB681B78DBB223F04003DAB290
S31502002EE8FB681A70FB681B78DBB2DB09DBB203F0FE
S31502002EF80103DBB2002BF5D100BF00BF1437BD4674
S31502002F085DF8047B7047000080B500AF184B93F854
S31502002F18003CDBB2002B07D1154B93F8013CC3F3F7
S31502002F280103DBB2002B1CD0114B93F8003CDBB239
S31502002F38002B0DD10E4B012283F8002C0121C8204B
S31502002F4800F06EF90A4B93F8003CDBB2012BF9D17B
S31502002F58074B002283F8012C054B002283F8002C2C
S31502002F6804E04FF47A70FFF785FF00BF00BF80BD0B
S31502002F7800E0014090B593B000AF78606C4BB3F8AF
S31502002F88FA337B876A4B4AF20352A3F8FA230023E1
S31502002F987B6400233B6438E0664B5A683B6C10330B
S31502002FA8012101FA03F31340BB62BB6A002B29D144
S31502002FB801223B6C02FA03F37A6C13437B64002307
S31502002FC87B62EFF31083BB61BB697B620123FB6102
S31502002FD8FB6983F3108800BF564B5A683B6C103363
S31502002FE8012101FA03F3534913434B60514B5B68C2
S31502002FF801211E2000F014F97B6A3B623B6A83F3C7
S31502003008108800BF3B6C01333B643B6C012BC3D970
S31502003018474B93F87530C3F30303DBB2184600F047
S315020030288DF80446424B93F86D30C3F30303DBB2C3
S315020030381846FFF737FC0346B4FBF3F37B637B6B57
S315020030483D4AA2FB03239B0C3B633B6B5B000121BE
S31502003058184600F0E5F8364A92F8753043F0400310
S3150200306882F87530324B93F87530C3F3C013DBB26E
S31502003078012BF7D12E4A7B685B7882F86D307B6824
S315020030881B782B4A43F04003DBB282F87530284A94
S315020030987B681B7882F87530254B93F87530C3F335
S315020030A8C013DBB2002BF7D10023FB632DE001220C
S315020030B8FB6B9A407B6C1340002B23D00023FB62E8
S315020030C8EFF31083FB60FB68FB6201233B613B69FC
S315020030D883F3108800BF174B5A68FB6B1033012124
S315020030E801FA03F3DB43134913404B60114B5B6848
S315020030F801211E2000F094F8FB6A7B617B6983F349
S31502003108108800BFFB6B0133FB63FB6B012BCED927
S31502003118074A7B8F43F07F4343F47F0343F42543F7
S315020031289BB2A2F8FA3300BF4C37BD4690BD00BF2A
S3150200313800E001400030204083DE1B4380B485B0A6
S3150200314800AF0346FB71FB79054A52F82330FB6050
S31502003158FB6818461437BD465DF8047B704700BF06
S315020031686004002280B582B000AF2B4B002283F8A0
S3150200317828200121C82000F053F8274B002283F8A3
S315020031882420254B93F82430DBB2002BF9D1224AAE
S3150200319892F8243043F0020382F824301E4B93F847
S315020031A82430C3F34003DBB2002BF7D11A4B0022BB
S315020031B883F82220184B93F82230DBB2002BF9D180
S315020031C80023FB7116E01449FB7903F1200211F87A
S315020031D8123023F0800301F812300F4AFB792033AC
S315020031E812F81330C3F3C013DBB2002BF5D1FB7907
S315020031F80133FB71FB79022BE5D9012000F0AEF908
S31502003208064B002283F84C2C012000F057F900BF28
S315020032180837BD4680BD00BF0020204000E00140BF
S315020032282DE9B04F98B000AF786339630023FB6588
S315020032387A6B3B6B02FB03F3BB65564B1B687B65DC
S315020032487A6D554B9A4239D37B6D03F5742303F293
S315020032583F23524AA2FB03239B0C3B64BB6D00220D
S315020032683B627A623B6C0022BB61FA61D7E9084588
S315020032782B46D7E90689424602FB03F24B4621460C
S3150200328801FB03F3134422464146A2FB0112FA62EA
S315020032980A46BA62FA6A1344FB62D7E90A23C7E9FD
S315020032A80E23C7E90E23D7E90E23012B03D34FF0CA
S315020032B8FF33FB6562E0BB6BFB655FE0384A7B6DFB
S315020032C8B2FBF3F33B65BB6D002298469146424634
S315020032D84B4652EA4F13B2EB0801396163EB090315
S315020032E87B61D7E9042352EA8F031046194603463F
S315020032F813EB0803BB600B4643EB0903FB60D7E9F4
S31502003308022352EACF03C7E91223D7E91223012B74
S3150200331807D2BA6C3B6DB2FBF3F37B647B6CFB653D
S315020033282CE0BA6D3B6DB2FBF3F3BB65BB6D0022B5
S315020033381C46154622462B4652EA4F13B2EB040A9E
S3150200334863EB050B52465B4652EA8F0392469B464F
S315020033581AEB04033B604BEB05037B60D7E90023BA
S3150200336852EACF03C7E91223D7E91223012B02D265
S31502003378BB6CFB6502E04FF0FF33FB65FB6D002B70
S3150200338802D0F86D00F010F800BF6037BD46BDE800
S31502003398B08F00BFA029002200127A0083DE1B43E9
S315020033A800CA9A3B00000000A0F101000028FBD1E8
S315020033B8704700BF80B582B000AF0346FB71FB7948
S315020033C8074A52F82330002B06D0FB79044A52F8F2
S315020033D82330FA791046984700BF0837BD4680BDA4
S315020033E8F428002280B584B000AF1B4B03F5C04316
S315020033F8D3F80031BB60184B03F5C043D3F820312C
S31502003408BA6813407B600023FB730DE0FB7B012245
S315020034189A407B681340002B03D0FB7B1846FFF7C4
S31502003428C9FFFB7B0133FB73FB7B142BEED90A4BDB
S3150200343803F5C0431A467B68C2F81031064B03F5FA
S31502003448C043D3F820217B681340002BF6D100BF76
S3150200345800BF1037BD4680BD0060004080B483B00F
S3150200346800AF60237B607B68122B01D912237B6035
S3150200347800233B6013E00F4A3B6832F81330002BF7
S315020034880AD00C4A3B6832F813300B4A19463B6895
S3150200349803F5C65342F823103B6801333B603A688A
S315020034A87B689A42E7D300BF00BF0C37BD465DF87A
S315020034B8047B70476C9800020060004080B487B0B5
S315020034C800AF0346FB7100237B61EFF31083FB60B9
S315020034D8FB687B6101233B613B6983F3108800BF6C
S315020034E8FB791A4A32F813309BB2002B09D0FB79C2
S315020034F8164A32F8132092B2013A91B2134A22F8C6
S315020035081310FB79114A32F813309BB2002B11D1F2
S315020035180F4BB3F8FA339AB20E4B13439AB2FB79AE
S315020035280D4931F81330DB439BB2094913409BB26C
S31502003538A1F8FA337B69BB60BB6883F3108800BFC6
S3150200354800BF1C37BD465DF8047B704794290022EC
S3150200355800E0014000A5FFFFC89A000280B487B0C8
S3150200356800AF0346FB7100237B61EFF31083FB6018
S31502003578FB687B6101233B613B6983F3108800BFCB
S31502003588FB79164A32F813309BB2002B0FD1144B33
S31502003598B3F8FA339AB2FB79124931F81330134366
S315020035A89AB20F49104B13439BB2A1F8FA33FB792F
S315020035B80A4A32F8132092B2013291B2074A22F825
S315020035C813107B69BB60BB6883F3108800BF00BF1A
S315020035D81C37BD465DF8047B704700BF942900225C
S315020035E800E00140C89A000200A5FFFF80B500AFBF
S315020035F800F016F9FCF7D6FD00BFFDE780B400AF70
S3150200360800BE00BFBD465DF8047B704780B483B038
S3150200361800AF7860BFF35F8F00BF0B4A7B6843F049
S3150200362801035360094B5B6A084A43F480335362C9
S31502003638BFF34F8F00BFBFF36F8F00BF00BF0C37BA
S31502003648BD465DF8047B704790ED00E000ED00E0B2
S3150200365880B487B000AF78600B46FB701346BB7028
S31502003668FB789B08FB75FB7803F00303DB003B61E1
S31502003678FF223B6902FA03F3FB60FB7D012B16D896
S31502003688FA7D7B680C3253F82220FB68DB4302EA98
S315020036980301BA783B6902FA03F31A46FB68134038
S315020036A8FA7D19437B680C3243F8221000E000BF0A
S315020036B81C37BD465DF8047B7047000080B582B0B2
S315020036C800AF03460A46FB711346BB71BA79FB790A
S315020036D819460348FFF7BCFF00BF0837BD4680BD41
S315020036E890ED00E080B485B000AFF860B9607A600A
S315020036F83B60FB68BA689A60FB687A68DA60FB68BE
S315020037083A681A6100BF1437BD465DF8047B7047F4
S3150200371880B584B000AFF860B9607A607B68BA6831
S31502003728F9680348FFF7DEFF00BF1037BD4680BDC4
S3150200373890ED00E090B585B000AF78600023FB609D
S3150200374830E0364B5968FA6813465B0013449B000F
S315020037580B445B7A1A467B68934220D12F4B5968F1
S31502003768FA6813465B0013449B000B4418682B4BFC
S315020037785968FA6813465B0013449B000B445B685E
S315020037881C46264B5968FA6813465B0013449B008D
S315020037980B441B68E31A1A46002105F0B9FCFB68BC
S315020037A80133FB601D4B1B68FA689A42C9D3002392
S315020037B8BB6029E0194BDA68BB681B0113445B7BC3
S315020037C81A467B6893421CD1144BDA68BB681B0104
S315020037D813441868114BDA68BB681B0113449968CD
S315020037E80E4BDA68BB681B0113445B681C460B4B1D
S315020037F8DA68BB681B0113441B68E31A1A4605F00C
S315020038088FFCBB680133BB60044B9B68BA689A425B
S31502003818D0D300BF00BF1437BD4690BDB09A000290
S3150200382880B58EB002AFA34BA34A5A61BFF34F8F3E
S3150200383800BFBFF36F8F00BF9E4B1B687B627B6A1C
S315020038481B0D03F00F033B627B6A03F00F03FB6158
S315020038583B6A012B02D1FB69002B02D13B6A012B81
S315020038680CD9964B1B68954A23F004031360BFF3E1
S315020038784F8F00BFBFF36F8F00BF19E08F4B1B68D6
S315020038888E4A43F004031360BFF34F8F00BFBFF3A2
S315020038986F8F00BF4FF0E0239B684FF0E02243F49E
S315020038A880339360BFF34F8F00BFBFF36F8F00BFA4
S315020038B8804B4FF47002C3F888207E4B804A9A6088
S315020038C80020FCF75BFCFFF767F97E4B4AF20252CF
S315020038D8A3F8FA237B4B002283F8B02A794B4FF4DC
S315020038E82542A3F8FA230120FCF748FC764BFB6035
S315020038F8FB6883F30A8800BF704B1B6803F0020358
S31502003908002B2DD06B4B9B68B3F1007F28D16B4BF4
S315020039181B69DB0803F00F030933012202FA03F3DA
S31502003928DB08BB61654B5B69DB0803F00F030933F0
S31502003938012202FA03F3DB087B61BB6900934FF0AD
S3150200394800024FF00003002000F026F97B6900937D
S315020039584FF000024FF000034FF0005000F01CF940
S315020039680020FFF7E7FEFEF7CDFFFFF7FBFB03207C
S31502003978FFF7F4FD0023FB6208E0544AFB6A0C33A6
S31502003988002122F82310FB6A0133FB62FB6A0D2B26
S31502003998F3D90320FFF792FD0320FFF7DFFD4C4B17
S315020039A800225A604A4B00229A60494B0022DA608A
S315020039B8474B00221A610320FFF780FD414BD3F8DB
S315020039C8D833C3F34003DBB2002B05D03D4BD3F803
S315020039D8D833C3F340031FE03A4B93F81031DBB2F6
S315020039E8002B19D00120FFF7B9FD364B93F8103199
S315020039F8DBB203F0C003802BF7D1324B002283F8E7
S31502003A081021304B93F81031DBB203F0C003002BC0
S31502003A18F7D10120FFF752FD2A4BD3F8D833C3F367
S31502003A288003DBB2002B05D0264BD3F8D833C3F379
S31502003A3880031FE0234B93F81431DBB2002B19D015
S31502003A480120FFF78BFD1F4B93F81431DBB203F00D
S31502003A58C003802BF7D11B4B002283F81421194B84
S31502003A6893F81431DBB203F0C003002BF7D101201F
S31502003A78FFF724FD0220FCF781FB0120FFF75AFE1F
S31502003A88BFF34F8F00BFBFF36F8F00BF094B0022F2
S31502003A98C3F85022BFF34F8F00BFBFF36F8F00BF2B
S31502003AA800BF0C4A0C4BD31A9B103B610023BB6226
S31502003AB81CE000BF00ED00E001020E0000E001E09C
S31502003AC80000000200E0014060000022000D4040B4
S31502003AD8004020406C9E0002689E00022B4ABB6A88
S31502003AE852F823309847BB6A0133BB62BA6A3B690C
S31502003AF89A42F3DBFFF7B2FC002000F0CDF800F0A3
S31502003B0861F8234B5B6903F48033002B38D1204BD1
S31502003B180022C3F88420BFF34F8F00BF1C4BD3F893
S31502003B288030BB60BB685B0BC3F30E037B60BB686C
S31502003B38DB08C3F309033B607B685A0143F6E0736B
S31502003B4813403A68920712491343C1F860323B6838
S31502003B585A1E3A60002BEFD17B685A1E7A60002BF8
S31502003B68E5D1BFF34F8F00BF094B5B69084A43F49F
S31502003B7880335361BFF34F8F00BFBFF36F8F00E0EF
S31502003B8800BF00BF3037BD4680BD00BF689E000239
S31502003B9800ED00E00000000080B584B000AFF860D8
S31502003BA8C7E90023BA69D7E90001FB6842F005C0F4
S31502003BB8E3E802010FF005C0FB6000BF1037BD46FF
S31502003BC880BD00BF80B588B000AF44233B71012396
S31502003BD83B770023FB770CE0FB7F20333B4413F84B
S31502003BE81C2CFB7F11461846FFF768FDFB7F013345
S31502003BF8FB77FA7F3B7F9A42EED30023BB77244BAF
S31502003C081B681B0AFB7600237B7731E0214B5A6936
S31502003C187B7FDB0013441B687B611E4B5A697B7FE3
S31502003C28DB0013445B683B613B691F2B1DD97B692B
S31502003C3823F01F0343F00103FB603B69203B23F09B
S31502003C481F0343F00103BB60BB6823F01F02FB6836
S31502003C5823F01F039A4208D3BB7FBA68F96818464D
S31502003C68FFF756FDBB7F0133BB777B7F01337B773B
S31502003C787A7F084B1B699A4203D2BA7FFB7E9A4225
S31502003C88C4D30420FFF7C2FC00BF2037BD4680BD5F
S31502003C9890ED00E0B09A000280B483B000AF78607D
S31502003CA800BF0C37BD465DF8047B704780B483B00D
S31502003CB800AF786039607B683A681A6000BF0C37D3
S31502003CC8BD465DF8047B704780B483B000AF786068
S31502003CD80B46FB707B68FA781A7000BF0C37BD4634
S31502003CE85DF8047B704780B483B000AF78607B6868
S31502003CF81B6818460C37BD465DF8047B7047000002
S31502003D0880B582B000AF7860396010E000BF0D4818
S31502003D18FFF7E9FF034603F00053002BF7D07B6851
S31502003D285A1C7A601B7819460748FFF7CDFF3B688D
S31502003D385A1E3A60002BE9DC00BF00BF0837BD46B1
S31502003D4880BD00BF488835400488354080B500AF3D
S31502003D580D48FFF7C8FF034623F4000319460A482D
S31502003D68FFF7A4FF00210948FFF7A0FF1021084822
S31502003D78FFF79CFF07490848FFF798FF11210348F8
S31502003D88FFF794FF00BF80BD043020400888354005
S31502003D980C883540104000801088354080B483B0C6
S31502003DA800AF78607B6883F31188BFF36F8F00BF1B
S31502003DB80C37BD465DF8047B704780B483B000AF0C
S31502003DC8EFF311837B607B6818460C37BD465DF8B6
S31502003DD8047B704780B483B000AF10237B60EFF397
S31502003DE811833B607B6883F311883B6818460C375E
S31502003DF8BD465DF8047B704780B400AF044B1B6870
S31502003E080133034A136000BFBD465DF8047B704761
S31502003E18C82A002280B400AF044B1B68013B034A40
S31502003E28136000BFBD465DF8047B7047C82A0022AE
S31502003E3880B483B000AF786039603B681B6913F1C0
S31502003E48640F07DB3B681B6913F1640F02DA6FF034
S31502003E58100327E03B680422DA613B685B69002BA2
S31502003E6801D100231EE03B685B69042B02D06FF088
S31502003E78100317E03B681B6913F1650F08D013F1AD
S31502003E88640F0BD13B689B697A68D2691A6008E0AD
S31502003E983B689B697A68126A1A6002E06FF010033F
S31502003EA800E0002318460C37BD465DF8047B7047D0
S31502003EB880B485B000AF786039603B685B69042BD3
S31502003EC802D06FF0100320E03B689B691B68FB6019
S31502003ED83B681B6913F1650F0CD013F1640F0DD102
S31502003EE8FB68012B02D96FF010030EE07B68FA68B3
S31502003EF8DA6106E07B68FA681A6202E06FF010037C
S31502003F0803E03B680422DA61002318461437BD46EB
S31502003F185DF8047B7047000080B584B000AF786016
S31502003F28FFF76AFF7B681B68FB600F4B1A68FB6822
S31502003F381B69012101FA03F31946104602F0ACFC8B
S31502003F487B681B79023B012B03D8FB6800225A6166
S31502003F5804E0FB686FF038025A6100BFFFF75AFFA8
S31502003F6800BF1037BD4680BDA429002280B588B09F
S31502003F7802AF786039607B681B69012202FA03F393
S31502003F883B612A4B1A683B69DB431946104602F025
S31502003F980BFD7B68DB69002B02D0012B20D022E0C7
S31502003FA87B6818683B681B6901221946FCF7B3FC53
S31502003FB8F860FB68002B02D06FF0380331E07B68AB
S31502003FC818683B6899693B685B691A460023FCF7DF
S31502003FD873FCF860FB68002B08D06FF0380320E00A
S31502003FE86FF008031DE06FF004031AE000BF0F4BE1
S31502003FF8186807F108034FF4FA7200922022396909
S3150200400802F036FD78617B69002B09DB7B685B6908
S315020040187B617B69002B03DB3B685A693B68DA6183
S315020040287B6918461837BD4680BD00BFA429002201
S3150200403880B588B002AF786039607B681B69012257
S3150200404802FA03F33B612A4B1A683B69DB431946BA
S31502004058104602F0A9FC7B68DB69002B02D0012B13
S3150200406820D022E07B6818683B681B690122194642
S31502004078FCF751FCF860FB68002B02D06FF038039E
S3150200408831E07B6818683B6899693B685B691A4640
S315020040980023FCF72AFCF860FB68002B08D06FF0B7
S315020040A8380320E06FF008031DE06FF004031AE0FE
S315020040B800BF0F4B186807F108034FF4FA72009213
S315020040C82022396902F0D4FC78617B69002B09DB6E
S315020040D87B685B697B617B69002B03DB3B685A69FA
S315020040E83B68DA617B6918461837BD4680BD00BF52
S315020040F8A429002280B586B000AFF860B9607A605C
S315020041087B681B697B617B691B68002B02D16FF098
S31502004118380320E07B69BA68DA607B691A687B69CA
S315020041285B6819461046FCF74DFB38613B69002B64
S3150200413802D06FF038030EE07B69186800237A69AB
S315020041480749FCF700FC38613B69002B02D06FF087
S31502004158380300E0002318461837BD4680BD00BF65
S31502004168213F000280B485B000AFF860B9607A607A
S31502004178002318461437BD465DF8047B704780B5A0
S3150200418884B000AF786039603B681B69BB607B68A6
S315020041981B69002B05DB7968B868FFF7E7FEF8604C
S315020041A804E07968B868FFF743FEF860FB681846CA
S315020041B81037BD4680BD80B584B000AF78603960DF
S315020041C83B681B69BB607B681B69002B05DB79684A
S315020041D8B868FFF72DFFF86004E07968B868FFF75A
S315020041E867FEF860FB6818461037BD4680BD80B486
S315020041F885B000AFF860B9607A606FF008031846B8
S315020042081437BD465DF8047B7047000080B596B04A
S3150200421800AFF860B9607A60FB68032B02D96FF0C9
S31502004228100373E0242001F005FC38653B6D002B72
S3150200423802D16FF0200369E03649FB683A6D41F80E
S315020042482320354802F078FA0346344A1360334B82
S315020042581B68002B03DC314B1B687B6552E03B6D08
S315020042683B6100233B6200237B620023BB6201237E
S31502004278FB622B4B3B632B4B7B632B4BBB632B4B5F
S31502004288FB632B4B3B6407F1100304332949184699
S3150200429801F046FC274801F031FCF864FB68DBB202
S315020042A86133D9B207F11402FB6C13440A461A7039
S315020042B8FB6C013358333B44002203F8442C07F1C4
S315020042C8440207F1480107F11003184604F0CCFD31
S315020042D878657B6D002B14D13B6DBA681A603B6D0D
S315020042E87A685A607B6C1A683B6D9A603B6DFA680D
S315020042F81A61BA6C3B6D9A613B6D0022DA61002342
S3150200430804E000BF386D01F0A2FB7B6D18465837F2
S31502004318BD4680BDA829002200000022A429002249
S31502004328FD4000026D41000287410002BF410002C2
S31502004338F7410002D49A000280B400AF044B1B680E
S315020043480133034A136000BFBD465DF8047B70471C
S31502004358C82A002280B400AF044B1B68013B034AFB
S31502004368136000BFBD465DF8047B7047C82A002269
S3150200437880B483B000AF786039606FF010031846D6
S315020043880C37BD465DF8047B704780B483B000AF36
S31502004398786039606FF0100318460C37BD465DF831
S315020043A8047B704780B584B000AF7860FFF7C4FF1E
S315020043B87B685B68FB60104B1A68FB681B69012106
S315020043C801FA03F31946104602F066FA7B689B78EF
S315020043D8002B01D0032B03D1FB6800229A6104E06B
S315020043E8FB686FF038029A6100BFFFF7B3FF00BFA0
S315020043F81037BD4680BD00BFB829002280B58AB0F5
S3150200440802AF786039603B685B69002B04D13B6870
S315020044180122DA61002348E07B681B69012202FA5D
S3150200442803F3BB61234B1A68BB69DB431946104683
S3150200443802F0BAFA7B681B681846FDF743FC7861F6
S315020044487B69002B02D06FF038032EE0194B1868EF
S3150200445807F10C034FF4FA7200922022B96902F0AE
S3150200446807FBF861FB69002B1EDB7B689B69FB6116
S31502004478FB69002B18DB7B6818683B681B69DBB293
S3150200448807F112021946FDF745FC78617B69002B94
S3150200449807D17A8A3B689B691A603B680122DA610E
S315020044A802E06FF03803FB61FB6918462037BD4608
S315020044B880BD00BFB829002280B483B000AF7860FF
S315020044C839606FF0420318460C37BD465DF8047B27
S315020044D87047000080B58CB002AFF860B9607A60A8
S315020044E800237B627B681B693B623B6A1B68002B65
S315020044F802D16FF0380355E03B6ABA685A613B6AE3
S315020045081A683B6A5B6819461046FDF793F8F86124
S31502004518FB69002B02D06FF0380343E03B6A186848
S3150200452800233A6A2149FDF7B3FB3B6A1A683B6ADC
S315020045389B6819461046FDF7FBF9F861FB69002BE3
S3150200454802D06FF038032DE03B6A1B69012202FA9A
S3150200455803F3BB61164B1A68BB69DB43194610465F
S3150200456802F022FA3B6A1B6800211846FDF782FC14
S31502004578F861FB69002B05D0FB69062B02D06FF0A8
S3150200458838030FE0FB69002B0BD1094B186807F1BA
S3150200459814034FF47A7200922022B96902F068FA7B
S315020045A878627B6A18462837BD4680BDAD4300024D
S315020045B8B829002280B586B000AFF860B9607A6083
S315020045C87B681B697B617B691B68002B02D16FF0D4
S315020045D8380311E07B691B681846FDF78DFB7B697A
S315020045E81B681846FDF7D0FB38613B69002B01D1E1
S315020045F8002301E06FF0380318461837BD4680BD20
S3150200460880B584B000AF786039603B681B69BB60CF
S31502004618BB681B68002B02D16FF038030FE07B687A
S315020046281B69002B05DB7968B868FFF7E7FEF860B7
S3150200463804E07968B868FFF79BFEF860FB681846DD
S315020046481037BD4680BD80B584B000AF786039604A
S315020046583B681B69BB60BB681B68002B02D16FF005
S3150200466838030FE07B681B69002B05DB7968B8689D
S31502004678FFF722FFF86004E07968B868FFF785FE5D
S31502004688F860FB6818461037BD4680BD80B485B011
S3150200469800AFF860B9607A606FF0080318461437FD
S315020046A8BD465DF8047B704780B596B000AFF860EA
S315020046B8B9607A603B60FB68022B02D96FF010037F
S315020046C873E0242001F0B6F938653B6D002B02D160
S315020046D86FF0200369E03749FB683A6D41F82320F9
S315020046E8354802F029F80346344A1360334B1B68EF
S315020046F8002B03DC314B1B687B6552E03B6D3B614B
S3150200470800233B6200237B620023BB620123FB6218
S315020047182B4B3B632B4B7B632B4BBB632B4BFB63B9
S315020047282B4B3B6407F1100304332A49184601F060
S31502004738F7F9284801F0E2F9F864FB68DBB261335D
S31502004748D9B207F11402FB6C13440A461A70FB6CC1
S31502004758013358333B44002203F8442C07F1440240
S3150200476807F1480107F11003184604F07DFB786546
S315020047787B6D002B14D13B6DBA681A603B6D7A6863
S315020047885A603B6D3A689A607B6C1A683B6DDA60D0
S315020047983B6DFA681A61BA6C3B6DDA61002304E074
S315020047A800BF386D01F053F97B6D18465837BD4680
S315020047B880BD00BFBC2900220C000022B8290022B5
S315020047C8DD440002BD450002094600024F460002CA
S315020047D895460002DC9A000280B483B000AF786086
S315020047E839607B683A681A6000BF0C37BD465DF8C7
S315020047F8047B704780B400AFBFF36F8F00BFBD461E
S315020048085DF8047B704780B400AFBFF34F8F00BFDB
S31502004818BD465DF8047B704780B500AFFFF7F3FF2E
S31502004828FFF7E8FF00210448FFF7D6FFFFF7EBFF83
S31502004838FFF7E0FF00BF80BD50EF00E080B584B00F
S3150200484800AF786039607B6803F01F023B68134447
S31502004858FB607B68BB60FFF7D6FF09E0B9680A48C8
S31502004868FFF7BAFFBB682033BB60FB68203BFB60DF
S31502004878FB68002BF2DCFFF7C6FFFFF7BBFF00BFA2
S315020048881037BD4680BD00BF68EF00E080B483B034
S3150200489800AF786039607B683A681A6000BF0C37E7
S315020048A8BD465DF8047B704780B500AF074B012211
S315020048B81A60074B00221A604FF080510548FFF72D
S315020048C8E5FF0020FFF76AFA00BF80BD58170022ED
S315020048D85C17002204ED00E080B500AF4FF080516E
S315020048E80248FFF7D3FF00BF80BD00BF04ED00E01A
S315020048F830484FF0010101602F480168002909D1AB
S315020049084FF0085282F30A88DFF8B0D02C4A82F3B5
S315020049180A8811E02DE9F00F00B50A6912F48052EF
S3150200492805D01EF0100302D12DED108A08B4C1F885
S3150200493818D04FF0000202601F4C224D224E4FF053
S31502004948100282F31188D5F80080B8F1000F0DD154
S31502004958D6F800C0BCF1000F08BF00F0B3FA4FF05A
S31502004968000282F31188BFF36F8FE8E7C4F800806C
S315020049784FF0085282F30A88D8F818D0D8F81C20C3
S3150200498882F30A88D8F8100010F4805006D0009BEB
S3150200499813F0100302D108BCBDEC108A5DF804EBD3
S315020049A8BDE8F00F03484FF00001016081F311885A
S315020049B870470000581700225C170022C82A0022F6
S315020049C8C829002260170022E42A002280B500AF17
S315020049D8024800F0A9FA00BFFDE700BFE49A000208
S315020049E880B584B000AF124B1B68BB60114B1B68C5
S315020049F8002B04D00F4B1B689B68FB6001E0002369
S31502004A08FB60BB6803F08043002B09D00A4B1B6886
S31502004A187B607B68BA68F968084800F025FE05E0FD
S31502004A28BA68F968064800F01FFE00BF00BFFDE736
S31502004A382CED00E05C17002228ED00E0EC9A00025B
S31502004A48209B000280B500AF024800F06DFA00BF55
S31502004A58FDE700BF4C9B000280B500AF024800F09C
S31502004A6863FA00BFFDE700BF589B000280B500AF9E
S31502004A78024800F059FA00BFFDE700BF649B000236
S31502004A8880B500AF024800F04FFA00BFFDE700BF4D
S31502004A98749B000280B500AF024800F045FA00BFD9
S31502004AA8FDE700BF7C9B000280B483B000AF78604C
S31502004AB87B681B6818460C37BD465DF8047B704751
S31502004AC880B400AF044B1B680133034A136000BF6E
S31502004AD8BD465DF8047B7047C82A002280B400AF41
S31502004AE8044B1B68013B034A136000BFBD465DF8D1
S31502004AF8047B7047C82A002280B400AFBFF36F8FC9
S31502004B0800BFBD465DF8047B704780B400AFBFF3B3
S31502004B184F8F00BFBD465DF8047B704780B500AF76
S31502004B280648FFF7C1FF034603F40033002B14BF00
S31502004B3801230023DBB2184680BD00BF14ED00E056
S31502004B4880B500AF0648FFF7AFFF034603F480338C
S31502004B58002B14BF01230023DBB2184680BD00BF19
S31502004B6814ED00E080B500AFFFF7AAFF03F088FD59
S31502004B78FFF7B4FF00BF80BD80B500AF184A194BD6
S31502004B889A60194A174BDA60184A164B1A61184A7C
S31502004B98144B5A61174A134B9A61174A114BDA6238
S31502004BA8164A104B1A63164A0E4B9A63154A0D4B50
S31502004BB8DA63FFF7C5FF0346002B03D02421124808
S31502004BC8FFF73CFEFFF7AAFF0346002B05D0FFF7C7
S31502004BD89CFFFFF721FEFFF78FFF0023184680BDD3
S31502004BE8D5490002002C0022E94900024D4A00027A
S31502004BF8614A0002754A0002894A00029D4A000279
S31502004C08F94800026D4B0002082C002280B483B0DA
S31502004C1800AF786039607B683A681A6000BF0C3763
S31502004C28BD465DF8047B704780B483B000AF7860F8
S31502004C387B681B6818460C37BD465DF8047B7047CF
S31502004C4880B400AFBFF36F8F00BFBD465DF8047B2B
S31502004C58704780B400AFBFF34F8F00BFBD465DF803
S31502004C68047B704780B500AF0648FFF7DDFF0346B1
S31502004C7803F40033002B14BF01230023DBB21846CA
S31502004C8880BD00BF14ED00E080B500AF0648FFF70F
S31502004C98CBFF034603F48033002B14BF0123002302
S31502004CA8DBB2184680BD00BF14ED00E080B584B0C3
S31502004CB800AFFFF78FF800F0C5F83948FFF7B4FFE1
S31502004CC803461A46374B1A60364B1B68FB60364B4F
S31502004CD8BB6000237B600AE0FA68131DFB60BB68B1
S31502004CE8191DB96012681A607B6801337B607B689C
S31502004CF86F2BF1DD2C4B19462948FFF787FFFFF783
S31502004D08C3FF0346002B04D04FF4E0612648FFF7A1
S31502004D1895FDFFF7A7FF0346002B05D0FFF799FF7E
S31502004D28FFF77AFDFFF78CFF204B1B683B603B6859
S31502004D3823F440733B603B689BB21C4A43F0BF6353
S31502004D4843F4003313604FF4E0211948FFF75EFF7E
S31502004D5800211848FFF75AFF17491848FFF756FF68
S31502004D68174B4FF008521A60154B1B681A46154B1B
S31502004D789A4202D2124B134A1A60134B134A1A600A
S31502004D880F4B1B68124A13600F4B1B68114A1360BC
S31502004D984FF0085383F30A8803F0E4FE00BFFDE7E9
S31502004DA808ED00E0CC2A0022002C00220CED00E0DF
S31502004DB824ED00E01CED00E00000F01020ED00E01C
S31502004DC8D02A002200330022D42A002200401D22C3
S31502004DD8D82A0022DC2A002280B400AF0023184613
S31502004DE8BD465DF8047B704780B582B000AF0023EC
S31502004DF87B600B4A0B490020FFF708FA78607B684C
S31502004E08002B01DA7B6807E0074B084A08490020AD
S31502004E18FFF74AFC78607B6818460837BD4680BDAE
S31502004E284C9100028C280022F49100023893000269
S31502004E38CC28002280B400AF00231846BD465DF890
S31502004E48047B704780B400AF00BFBD465DF8047BA3
S31502004E58704780B500AFFEF7BDFF00BFFDE7000053
S31502004E6880B582B000AF78607B68B3F1FF3F0BD0A4
S31502004E787B68002B1ADA7B6813F1030F10D07B6864
S31502004E8813F1020F06D011E00B4800F04DF86FF04F
S31502004E9808030DE0094800F047F86FF0080307E039
S31502004EA8074800F041F86FF0080301E06FF01003BD
S31502004EB818460837BD4680BDB09B0002D09B00024B
S31502004EC8EC9B000280B400AF00BFBD465DF8047BD0
S31502004ED8704780B500AFFEF739FF00BF80BD0000FE
S31502004EE880B584B000AF78607B68DBB2FB72FEF7F0
S31502004EF871FF0346FB60FB7A0A2B03D1012109489D
S31502004F08FEF7FEFE07F10B0301211846FEF7F8FE2F
S31502004F18FB681846FEF742FF002318461037BD46BF
S31502004F2880BD00BF039C000280B584B000AF7860E4
S31502004F387B68FB60FEF74EFF0346BB6006E0FB6834
S31502004F485A1CFA601B781846FFF7CAFFFB681B78DB
S31502004F58002BF4D1BB681846FEF720FF002318463B
S31502004F681037BD4680BD000080B487B000AFF86038
S31502004F78B9601346FB71FB799B10DBB203F0100391
S31502004F88FB75FB7903F03F03FB7114E0FA79BB6802
S31502004F98B3FBF2F101FB02F29A1AFB7D1344FA689B
S31502004FA8013AFA600E4AD25CFB681A70FB79BA6853
S31502004FB8B2FBF3F3BB60FB79BA689A42E6D2FA7D92
S31502004FC8BB681344FA68013AFA60054AD25CFB6880
S31502004FD81A70FB6818461C37BD465DF8047B704795
S31502004FE8149C000280B590B000AFF860B9607A6090
S31502004FF83B6000233B63F1E297F82730252B07D065
S315020050083B6B002B40F0E9827B68013B3B63E4E2A1
S315020050183B6B002B09D07A683B6BD31A591EFB6887
S31502005028BA68386B984700233B63002387F8253014
S315020050387B685A1C7A601B7887F8273097F82730DE
S31502005048203B102B48D801A252F823F0B550000293
S31502005058E1500002E1500002C3500002E150000292
S31502005068E1500002E1500002E1500002E150000264
S31502005078E1500002E1500002A7500002E15000028E
S3150200508899500002E1500002E1500002D15000029C
S3150200509897F8253043F0010387F825301BE097F887
S315020050A8253043F0020387F8253014E097F82530B7
S315020050B843F0040387F825300DE097F8253043F0CE
S315020050C8080387F8253006E097F8253043F01003E1
S315020050D887F8253000BFABE700BF97F827302A2BA1
S315020050E819D13B681A1D3A601B687B87B7F93A30B3
S315020050F8002B09DA7B8F5B429BB27B8797F82530B8
S3150200510843F0010387F825307B685A1C7A601B78BE
S3150200511887F827301EE000237B8713E07B8F1A4629
S31502005128920013445B009AB297F827309BB2134455
S315020051389BB2303B9BB27B877B685A1C7A601B7892
S3150200514887F8273097F827302F2B03D997F8273077
S31502005158392BE3D94FF6FF733B8797F827302E2B67
S3150200516840D17B685A1C7A601B7887F8273097F8F3
S3150200517827302A2B11D13B681A1D3A601B683B87D8
S31502005188B7F93830002B01DA00233B877B685A1CB3
S315020051987A601B7887F827301EE000233B8713E0E6
S315020051A83B8F1A46920013445B009AB297F827304F
S315020051B89BB213449BB2303B9BB23B877B685A1C1B
S315020051C87A601B7887F8273097F827302F2B03D970
S315020051D897F82730392BE3D997F8253023F01003AF
S315020051E887F82530002387F8243097F82730682B6C
S315020051F803D097F827306C2B09D197F8273087F810
S3150200520824307B685A1C7A601B7887F827300A2371
S3150200521887F826300023FB7407F114030E33BB62AA
S3150200522897F82730782B00F34D81642B0BDA632B22
S3150200523800F03581632B00F34581002B00F03E8197
S31502005248582B22D03EE1643B012202FA03F39F4A1D
S315020052581A40002A14BF01220022D2B2002A14D10F
S3150200526803F40042002A14BF01220022D2B2002A05
S3150200527840F0F18003F48053002B14BF012300236E
S31502005288DBB2002B40F0CF801CE197F824306C2B60
S3150200529805D13B681A1D3A601B68FB6316E03B683A
S315020052A81A1D3A601B68FB6397F82430682B0DD1E8
S315020052B897F82730692B03D097F82730642B02D149
S315020052C8FB6B1BB201E0FB6B9BB2FB6397F82730C3
S315020052D8583B202B00F2948001A252F823F000BF1B
S315020052E8AF5300020954000209540002095400028D
S315020052F80954000209540002095400020954000222
S315020053080954000209540002095400020954000211
S315020053186D5300020954000209540002095400029E
S31502005328095400026D53000209540002095400028E
S31502005338095400020954000209540002C353000228
S3150200534809540002095400020954000209540002D1
S3150200535809540002095400020954000209540002C1
S31502005368B9530002FB6B002B05DAFB6B5B42FB634E
S315020053782D23FB7410E097F8253003F00203002B67
S3150200538802D02B23FB7407E097F8253003F00403B9
S31502005398002B32D02023FB74B7F93A309BB2013B7B
S315020053A89BB27B872CE097F82630403387F8263065
S315020053B897F82630083387F8263097F82630023BC6
S315020053C887F8263097F8253003F00803002B16D005
S315020053D8FB6B002B13D07A8F97F82630082B01D156
S315020053E8012300E00223D31A9BB27B8797F8263063
S315020053F863F07F0387F8263001E000BF00E000BFB4
S31502005408FB6B002B03D1B7F93830002B08D097F87D
S3150200541826301A46F96BB86AFFF7A6FD034600E07E
S31502005428BB6AFB6255E03B681A1D3A601B68FB6360
S31502005438FB6B002B06D0902387F826307B8F023B26
S315020054489BB27B8797F826301A46F96BB86AFFF73C
S315020054588BFDF8623DE03B681A1D3A601B68FB62E9
S31502005468FB6ABB62B7F93830002B0BDA02E0BB6A7B
S315020054780133BB62BB6A1B78002BF8D128E0BB6AF2
S315020054880133BB623B8F013B9BB23B87B7F938308E
S31502005498002B1DDBBB6A1B78002BF0D118E0BB6A18
S315020054A8FB623B681A1D3A601A68FB6A013BFB629B
S315020054B8D2B2FB6A1A7000233B870AE07B68013B7B
S315020054C87B608BE07B68013B3B6387E02108120027
S315020054D800BFBA6AFB6AD31AFB863A8FFB8ED31AC7
S315020054E89BB23B87B7F93830002B04DDFA8E3B8F27
