S0130000426C696E6B795F546573742E73726563A9
S3150200000000040022D10C0002BD0B0002CD0C00023E
S31502000010CD0C0002CD0C0002CD0C0002CD0C00026C
S31502000020000000000000000000000000CD0C0002ED
S31502000030CD0C000200000000CD0C0002CD0C000227
S315020000400348044B834202D0034B03B1184770475F
S3150200005028F1C90228F1C90200000000064B07492F
S31502000060C91A891048BF0131491003D0044B0BB19C
S3150200007001481847704700BF28F1C90228F1C90292
S315020000800000000010B5064C237843B9FFF7D8FFED
S31502000090044B13B10448AFF300800123237010BD53
S315020000A0300400220000000028F1C90208B5054B01
S315020000B01BB105490548AFF30080BDE80840FFF7CC
S315020000C0CDBF00BF000000003404002228F1C9029F
S315020000D02DE9F843234B1A88002A42D000254FF017
S315020000E001095F68204CDFF88880204EEFF310820A
S315020000F089F31088236823B9402188F8143088F8D8
S31502000100141023680133236082F310883A88130A95
S315020001101B0153FA82F256F8223023F0011323F41C
S3150200012040432B4343F0040346F82230EFF3108298
S3150200013089F31088236813B12368013B236023687F
S3150200014023B9802188F8143088F8141082F31088B5
S315020001504FF47A714FF4FA7085F0010500F0EAFC6B
S31502000160C4E7FEE7E0160002AC04002200084040A5
S31502000170000D4040022800D070470249024800F0B4
S31502000180D7B800BFAC0F00024C04002208B5FFF737
S315020001909FFF002008BD00BF2DE9F84F0388DBB1A1
S315020001A04FF0000A80464FF00109DFF8D4B0002470
S315020001B0314D4FEACA07D8F8043035F8022BD9195F
S315020001C0898891420AD00134032CF4D1B8F8003060
S315020001D00AF1010A5345EAD8BDE8F88FDB5909FA54
S315020001E004F603F0B853B3F1807F244BF6B293F8CA
S315020001F04C2C12D0324230D104F120021BF81230BC
S31502000200DB09E0D01BF81230012123F08003C8205D
S315020002100BF8123000F08EFCD5E7324210D004F112
S3150200022020021BF81230DB09CDD11BF81230012156
S3150200023043F08003C8200BF8123000F07BFCC2E7C3
S31502000240012000F019FD0D4B012093F84C2C32438E
S3150200025083F84C2C00F0E0FCE1E7012000F00CFDF5
S31502000260064B012093F84C2C22EA060283F84C2C0A
S3150200027000F0D2FCC0E700BF9814000200E0014083
S3150200028000202040F8B50646FFF786FFEFF31082FE
S31502000290012383F31088234F3B681BB94020224970
S315020002A00B7508753B6801333B6082F3108833880F
S315020002B000211BB31D4D08E01B01134445F82340E2
S315020002C0328801318BB29A4218D9736853F8314099
S315020002D003EBC1029288E0034FEA1223D2B2EBD5B6
S315020002E002EB031055F820E024F4803C2EF4803E05
S315020002F045F820E01B0145F820C0DEE7EFF3108247
S31502000300012383F310883B6813B13B68013B3B60D2
S315020003103B681BB9802004490B75087582F3108867
S31502000320F8BD00BFAC040022000D4040000840406A
S3150200033008B5034B03600846FFF7A4FF002008BD7B
S3150200034054524F501D4A92F82630928CDBB202F07C
S315020003500F02A2F1080103292BD8DFE801F02016CB
S315020003600C021749174A51F82330A2FB03231B0933
S31502000370154A136070471249124A51F82330A2FBFC
S315020003800323114ADB08136070470D490D4A51F8E1
S315020003902330A2FB03230C4A9B08136070470849CB
S315020003A0084A51F82330A2FB0323074A5B0813606D
S315020003B07047034951F82330D340D9E700E00140A2
S315020003C000040022ABAAAAAABC040022704700BFFE
S315020003D04AF20351F8B5594B594AB3F8FA43A3F80E
S315020003E0FA1353680746D903A4B21AD5544B00250B
S315020003F05A68920329D50026504A524992F8753016
S3150200040092F86D2003F00F0302F00F0251F8233029
S31502000410072A00F28E80DFE802F0292929888A82DB
S315020004208486EFF31086012585F31088536843F41A
S315020004308033536053681E20294600F07BFB86F307
S3150200044010883F4B5A689203D5D4EFF310860121E8
S3150200045081F310885A6842F400325A605B681E20A3
S3150200046000F068FB86F310880226C5E7012101FA2F
S3150200047002F2B3FBF2F30121334AA2FB03239B0CE4
S3150200048003FA01F000F056FB2C4A92F8753043F05D
S31502000490400382F8753092F87530DB09FBD07B7821
S315020004A0264982F86D303B7843F0400382F8753076
S315020004B03B7882F8753091F87530DB09FBD135B996
S315020004C0BEB91E4B44F42544A3F8FA43F8BDEFF334
S315020004D01085012181F31088194B5A6822F4803263
S315020004E05A605B681E2000F025FB85F31088002EFB
S315020004F0E7D0EFF31085012181F31088104B5A687B
S3150200050022F400325A605B681E2000F013FB85F36A
S3150200051010880A4B44F42544A3F8FA43F8BD032293
S31502000520A7E70522A5E70A22A3E70622A1E70822F2
S315020005309FE71021083A01FA02F29AE700E0014029
S31502000540003020400004002283DE1B43000000002E
S315020005504AF203529FEDBC4B9FEDBD5BC24BC348B3
S31502000560C34930B5C3E90801C24CC3499FEDBA6B12
S315020005709FEDBB7B9962A4F8FA23A3EC045F83B0D8
S3150200058083ED007FFFF7DEFE09230A2284F8502A54
S3150200059084F8A23094F8003C23B994F8013C9C07F5
S315020005A000F06382B34C94F8003C002B00F05282B8
S315020005B00022B04B83F8012C83F8002C0022AD4BAD
S315020005C083F8362083F8322093F83C201007FBD5B7
S315020005D040F2234400204FF6021140F25142A74D49
S315020005E0C3F8C850A3F84E4083F84A00C3F8AC10CB
S315020005F0A3F84C20BFF34F8FBFF36F8FA04A516908
S3150200060021F400315161C2F85002BFF34F8FBFF39C
S315020006106F8F9C490A6822F440520A60BFF34F8FDB
S31502000620BFF36F8F0120197D924A60F3020119759B
S31502000630137DD906FCD4934A136843F440531360DE
S31502000640BFF34F8FBFF36F8FA2F57342536913F453
S31502000650003311D1BFF34F8FBFF36F8FC2F8503201
S31502000660BFF34F8FBFF36F8F536943F40033536168
S31502000670BFF34F8FBFF36F8F00237E4A82F82A3073
S3150200068092F83C309B06FBD500227F4B1A701A78F3
S315020006901A781A785A68FA2A04D07C4959605A6834
S315020006A0FA2AFBD1784B9A687D2A04D07849996058
S315020006B09A687D2AFBD1052242F220116D4B7548BC
S315020006C01862998483F82620FFF73CFE01211E203A
S315020006D000F030FA6C4A5368C3F30903642B84BFF3
S315020006E001231370FFF72EFE4AF201526A4B1A805B
S315020006F0BFF35F8F01221A72BFF35F8F4FF425415A
S315020007005C4A198092F8DA3043F0400382F8DA3014
S3150200071092F8DA30DB09FBD0C923032082F8D40031
S3150200072082F8DA3092F8DA30524903F0BF0382F8DF
S31502000730DA3091F8DA30DB09FBD10124802081F826
S31502000740534081F83E3081F83E0091F87430494AB0
S3150200075043F0400381F8743092F87430DB09FBD021
S3150200076007204A210A23434C82F86C0082F874104F
S3150200077082F8743094F87430DB09FBD14FF007032A
S3150200078001A8ADF80430FFF723FE94F87630394A13
S3150200079043F0400384F8763092F87630DB09FBD0DA
S315020007A0CA23032082F86E0082F8763092F87630F9
S315020007B0304903F0BF0382F8763091F87630DB09D0
S315020007C0FBD191F855302B4A43F0400381F855305E
S315020007D092F85530DB09FBD0CA23022082F8540076
S315020007E082F8553092F85530224903F0BF0382F859
S315020007F0553091F85530DB09FBD191F857301D4A37
S3150200080043F0400381F8573092F85730DB09FBD0AA
S31502000810C723002082F8560082F8573092F85730E4
S31502000820144903F0BF0382F8573091F85730DB09B9
S31502000830FBD191F85D300F4A43F0400381F85D30F9
S315020008402CE000BFAFF30080006CDC0200127A00DD
S315020008500080000000366E010080000000CA9A3B4C
S315020008600046C3235543DE13000400220084D71733
S315020008700008AF2F00E0014000389C1C022B01004B
S3150200088000ED00E000E001E000C01340FA00001EA7
S315020008907D0000E1323423320020004092F85D30C0
S315020008A0DB09FBD0C62082F85C3082F85D0092F844
S315020008B05D30704903F0BF0382F85D3091F85D3018
S315020008C0DB09FBD191F878306A4A43F0400381F89C
S315020008D0783092F87830DB09FBD0C923022082F8FF
S315020008E0700082F8783092F87830624903F0BF03DC
S315020008F082F8783091F87830DB09FBD191F85F30D5
S315020009005C4A43F0400381F85F3092F85F30DB09BE
S31502000910FBD0CA2082F85E3082F85F0092F85F3020
S31502000920544903F0BF0382F85F3091F85F30DB0968
S31502000930FBD191F877304F4A43F0400381F8773084
S3150200094092F87730DB09FBD0CA23042082F86F00C5
S3150200095082F8773092F87730464903F0BF0382F87F
S31502000960773091F87730DB09FBD191F85B30414A59
S3150200097043F0400381F85B3092F85B30DB09FBD031
S31502000980CA23022082F85A0082F85B3092F85B3062
S31502000990384903F0BF0382F85B3091F85B30DB091C
S315020009A0FBD191F8DB30334A43F0400381F8DB3068
S315020009B092F8DB30DB09FBD0C523022082F8D50092
S315020009C082F8DB3092F8DB302A4903F0BF0382F863
S315020009D0DB3091F8DB30DB09FBD191F8DC30254ABC
S315020009E043F0400381F8DC3092F8DC30DB09FBD0BF
S315020009F0C52082F8D63082F8DC0092F8DC301D4938
S31502000A0003F0BF0382F8DC3091F8DC30DB09FBD15E
S31502000A1091F8DE30174A43F0400381F8DE3092F84F
S31502000A20DE30DB09FBD0C923092082F8D80082F820
S31502000A30DE3092F8DE300F4903F0BF0382F8DE3073
S31502000A4091F8DE30DB09FBD14FF42543A1F8FA33E6
S31502000A5003B030BD0121C82084F8001C00F06AF8FA
S31502000A6094F8003C012BFBD1A2E54FF47A70FFF714
S31502000A70ADFCA3E500E0014038B50025284C012174
S31502000A80C82084F8285000F055F884F8245094F8C9
S31502000A902430002BFBD194F82430214943F0020381
S31502000AA084F8243091F82430C3F340009B07F9D42C
S31502000AB01B4A81F8220092F8223003F0FF00002B35
S31502000AC0F9D192F84030164960F3C71382F84030E4
S31502000AD091F84030DB09FBD191F84200104A63F3EA
S31502000AE0C71081F8420092F84230DB09FBD192F836
S31502000AF044000B4963F3C71082F8440091F844306E
S31502000B00C3F3C014DB09F9D1012000F0B5F8054B97
S31502000B10012083F84C4CBDE8384000F07DB800BF98
S31502000B200020204000E00140A0F101000028FBD196
S31502000B30704700BF1E4B1F4A1B6800FB01F1934220
S31502000B4013D302F1854202F5071203F5742302F666
S31502000B50834203F23F23A2FB03239B0CA3FB013137
S31502000B604FF0FF30E1B1FFF7DFBF4FF47A7210B4F6
S31502000B70114C4FF0FF30B4FBF3F3A1FB02C434B9BE
S31502000B80BCFBF3F080B15DF8044BFFF7CDBFB1FBC0
S31502000B90F3F1A1FB0212002AF5D1084620B1F2E7D1
S31502000BA01846002BDFD170475DF8044B704700BF33
S31502000BB0BC04002200127A0000CA9A3BF8B500244F
S31502000BC001260D4B0D4FD3F80021D3F820511540C5
S31502000BD006FA04F32B4204D057F82430E0B203B1EC
S31502000BE098470134152CF3D1034AC2F81051D2F8B2
S31502000BF020312B42FBD1F8BD00C000405804002230
S31502000C00034B1A8812B1034BC3F80023704700BF87
S31502000C10D016000200C00040EFF31081012383F3D7
S31502000C201088124B33F8102092B22AB133F81020F2
S31502000C30013A92B223F8102033F810309BB293B9DE
S31502000C4010B40B4A0B4CB2F8FA3334F810009BB2CC
S31502000C5043F4254323EA0003A2F8FA3381F310880A
S31502000C605DF8044B704781F310887047B004002288
S31502000C7000E00140D416000230B4EFF310810123E4
S31502000C8083F310880E4A32F810309BB26BB90D4CC2
S31502000C900D4DB4F8FA3335F810C09BB243EA0C0393
S31502000CA043F425439BB2A4F8FA3332F810300133E9
S31502000CB09BB222F8103081F3108830BC704700BF17
S31502000CC0B004002200E00140D416000200BE7047C4
S31502000CD008B500F035F8FFF759FAFEE7F8B5174FF1
S31502000CE005463E68A6B17C6806EB460604EB860618
S31502000CF002E00C34B4420BD0637AAB42F9D1D4E9A8
S31502000D0000020021121A0C3400F03AF9B442F3D16F
S31502000D10BE6896B1FC6804EB061602E01034A642E1
S31502000D200BD0637BAB42F9D1D4E90002A168121A57
S31502000D30103400F02DF9A642F3D1F8BDA01400023A
S31502000D40F8B5844A844B5A61BFF34F8FBFF36F8F56
S31502000D501B6803F47002B2F5801F00F0D48013F40E
S31502000D60600F00F0BC807D4A136823F00403136011
S31502000D70BFF34F8FBFF36F8F4FF47002784B764CF1
S31502000D800020C4F88820A360FFF7F4F90025FFF7D6
S31502000D90DFFB4AF202514FF42542724B0120A3F8BF
S31502000DA0FA1383F8B05AA3F8FA23FFF7E3F96E4B66
S31502000DB083F30A88694B1A68910704D5A268B2F1CF
S31502000DC0007F00F0A4800020FFF788FFFFF7BAFA41
S31502000DD0FFF752FE0320FFF74FFF00234FF00E0EE0
S31502000DE01C464EF001E0614903F10C0221F8224053
S31502000DF001330FF007C80320FFF70EFF0320FFF7AA
S31502000E003BFF5B4B03205C609C60DC601C61554CC5
S31502000E10FFF702FFD4F8D8339A0747D5D4F8D83368
S31502000E20504CD4F8D8335B0727D5D4F8D8330220F0
S31502000E30FFF7A0F90120FFF751FFBFF34F8FBFF372
S31502000E406F8F0024444BC3F85042BFF34F8FBFF35A
S31502000E506F8F484B484D5B1BA3424FEAA30605DD45
S31502000E6055F8043B01349847A642F9DCFFF7C8FE61
S31502000E70BDE8F840002000F081B894F81431002B48
S31502000E80D5D00120FFF7F8FE94F8143103F0C00321
S31502000E90802BF9D10023334A84F8143192F81431A5
S31502000EA03F2BFBD80120FFF7B7FEC0E794F81031BD
S31502000EB0002BB5D00120FFF7DFFE94F8103103F0C6
S31502000EC0C003802BF9D10023264A84F8103192F808
S31502000ED010313F2BFBD80120FFF79EFEA0E71F4AE9
S31502000EE0136843F004031360BFF34F8FBFF36F8F92
S31502000EF04FF0E022936843F480339360BFF34F8F41
S31502000F00BFF36F8F38E718077FF42DAF27E701216C
S31502000F101A695869C2F3C302093201FA02F30026BA
S31502000F200027DB0843F005C0E5E802670FF005C0BD
S31502000F30C0F3C303093301FA03F34FF00052DB088F
S31502000F4043F007C0AFF30080E2E802670FF005C086
S31502000F5039E700BF01020E0000ED00E000E001E00B
S31502000F600000000200E0014000000022000D4040A7
S31502000F70004020404C17000248170002704700BF8D
S31502000F8002440346934200D1704703F8011BF9E776
S31502000F900A44431E914200D1704710B511F8014B25
S31502000FA0914203F8014FF9D110BD00009C000000E8
S31502000FB0B80F000200000000004000000000000020
S31502000FC0004000000600000000400000080000008B
S31502000FD00040000009000000004000000C00000074
S31502000FE0450000000D000000000C011C000100007D
S31502000FF0000C011C01010000000C011C0201000092
S31502001000000C011C03010000000C011C040100007D
S31502001010000C011C05010000000C011C0601000069
S31502001020004000000701000045040000090100001D
S31502001030104000000B010000000C010B0C01000027
S31502001040000C010B0D010000000C010B0E0100004B
S31502001050000C010B0F01000000400000000200001E
S31502001060000C011806020000000C0119070200001C
S31502001070000C010008020000000C01000902000039
S31502001080000C01000A020000000C01000B02000025
S31502001090000C010B00030000000C010B0103000011
S315020010A0000C010B02030000040C00000303000005
S315020010B0000C011804030000000C011805030000CF
S315020010C0000C011806030000000C011807030000BB
S315020010D0000C011809030000000C01180A030000A5
S315020010E0400C010700040000400C01070104000047
S315020010F000000112020400000000011203040000B5
S31502001100000001120404000000040112050400009C
S315020011100004011206040000000401130704000083
S3150200112000040114080400000004011F0B0400005F
S31502001130000401180E040000000401180F04000048
S315020011400000011300050000000C01030105000068
S315020011500004011B02050000000C010B0305000040
S31502001160000C010B04050000000C010B0505000034
S31502001170000C010B06050000000C010B0705000020
S31502001180000C010B08050000000C010B090500000C
S31502001190000C010B0A050000400401070B050000C4
S315020011A0400401070C050000000C01190D050000A2
S315020011B0040400000E050000000C01190F050000D2
S315020011C0040C0000000600000404000006060000ED
S315020011D0000C010B07060000000C010B08060000BC
S315020011E0000C010B09060000000C010B0A060000A8
S315020011F0000C010B0B060000000C010B0C06000094
S31502001200000C010B0D060000000C010B0E0600007F
S31502001210000C010B0F060000000C01190707000065
S315020012200504000008070000040400000907000086
S31502001230000C01190A070000000C01190B07000037
S31502001240000C01190C070000000C01190D07000023
S31502001250000C01190E070000000C01190F0700000F
S31502001260000C011C00080000000C011C0108000013
S31502001270000C011C02080000000C011C03080000FF
S31502001280000C011C04080000000C011905080000EE
S31502001290000C011906080000000C011907080000DD
S315020012A0000C011C080800000004011B0C080000C9
S315020012B0000C010B0D080000000C01130E080000C3
S315020012C0000C01130F080000000C011902090000AE
S315020012D0000C011903090000000C011904090000A1
S315020012E0000C011805090000000C0118060900008F
S315020012F0000C011807090000000C0118080900007B
S31502001300000C011809090000000C01190A09000065
S31502001310000C01190B090000000C01190C09000050
S31502001320000C01190D090000000C01190E0900003C
S31502001330000C01190F090000000C010B000A000045
S31502001340000C010B010A0000000C010B020A00004E
S31502001350000C010B030A0000000C010B040A00003A
S31502001360000C010B050A0000000C010B060A000026
S31502001370040C0000070A0000000C010B080A00001A
S31502001380000C010B090A0000000C010B0A0A0000FE
S31502001390000C010B0B0A0000000C010B0C0A0000EA
S315020013A0000C010B0D0A0000000C010B0E0A0000D6
S315020013B0000C010B0F0A0000000C0119000B0000C3
S315020013C0000C0119010B0000000C0119020B0000B0
S315020013D0000C0119030B0000000C0119040B00009C
S315020013E0000C0119050B0000000C0119060B000088
S315020013F0000C0119070B0000000C010B000C000089
S31502001400000C010B010C0000000C010B020C000089
S31502001410000C010B030C0000000C010B040C000075
S31502001420000C010B050C0000000C010B060C000061
S31502001430000C010B070C0000000C010B080C00004D
S31502001440000C010B090C0000000C010B0A0C000039
S31502001450000C010B0B0C0000000C010B0C0C000025
S31502001460000C010B0D0C0000000C010B0E0C000011
S31502001470000C010B0F0C0000000C010B000D00000C
S31502001480000C0104020D0000000C0104030D000013
S3150200149000040114070D0000020403040404000002
S315020014A00A0000005816000218000000D8140002B4
S315020014B004000000B8140002000000680000006882
S315020014C00000008000000080000000700000007034
S315020014D000000022000000220000006800000068F0
S315020014E0000000900001090D00000068000000687D
S315020014F00000007800010B0D000000680000006883
S31502001500000000270001020D0000006800000068CC
S31502001510400000020001010D000000800000008072
S315020015200000009000010908000000800000008011
S315020015300000007800010B08000000800000008017
S315020015400000002700010208000000800000008061
S315020015504000000200010108000000700000007057
S31502001560000000900001090A0000007000000070EF
S315020015700000007800010B0A0000007000000070F5
S31502001580000000270001020A00000070000000703F
S31502001590400000020001010A0000000000000000F5
S315020015A00000009001010905000000000000000093
S315020015B00000007801010B05000000000000000099
S315020015C000000027010002050000000000000000E4
S315020015D0400000020100010500000020000000207A
S315020015E00000009001010904000000200000002014
S315020015F00000007801010B0400000020000000201A
S315020016000000002701000204000000200000002064
S315020016104000000201000104000000220000002236
S3150200162000000090000109030000002200000022D1
S315020016300000007800010B030000002200000022D7
S315020016400000002700000203000000220000002222
S31502001650400000020000010300000068000000686C
S315020016600001000D00000068000000680001000D86
S3150200167000000080000000800001000800000080D9
S3150200168000000080000100080000007000000070E9
S315020016900001000A00000070000000700001000A4C
S315020016A0000000000000000001000005000000200C
S315020016B000000020010000040000002200000022B9
S315020016C00000000330040022C004002200000003D0
S315020016D000000000010002000800100020000000C7
S315020016E003000000E816000200060303070A0000D2
S315020016F04275696C7420776974682052656E6573E9
S31502001700617320416476616E63656420466C657818
S3150200171069626C6520536F667477617265205061E9
S31502001720636B6167652076657273696F6E20362E0C
S31502001730362E3000362E362E300000000000060609
S30902001740F8B500BF31
S30902001744F8B500BF2D
S30902001748AD000002E6
S3090200174C850000020A
S30902C9F040FFFFFFFFFF
S30902C9F044EFFFFFFF0B
S30902C9F0C0FFFFFFFD81
S30902C9F0C4FFFFFFFF7B
S30902C9F120000000001A
S30902C9F1240000000016
S70502000CD11B
